:020000040800F2
:1000000040060020B1290008812700088327000846
:1000100000000000000000000000000000000000E0
:10002000000000000000000000000000852700081C
:100030000000000000000000872700088927000852
:10004000A70C0008000000003F120008CF120008B3
:100050006B130008871F00087F270008732900081A
:1000600000000000D12700087F290008D1290008DE
:10007000D3290008D5290008D7290008000000006E
:10008000D9290008DB270008DB290008F127000830
:10009000DD290008DF290008E1290008E32900081C
:1000A000E5290008E7290008E9290008EB290008EC
:1000B000ED290008EF29000810B504231940436911
:1000C00007248C40A3438A401A43426110BDC06894
:1000D000C02109010140481E8041C00F704781685E
:1000E0004807C00F7047F8B5050000270097002D9E
:1000F00001D10120F2BD2C0054346068002804D1E5
:10010000280000F05FFBA7602770286881688026C0
:100110007605314011D181687E4A0A4032438260BF
:100120007D4800687D4900F019FC400001E000981E
:10013000401E009000980028F9D129688868064080
:1001400008D16068102202436260A0680122024365
:10015000A260012788686268D20600D4400700D5F3
:10016000CFE060686E4A02400220104360608A68F7
:1001700080200006D20720D4CA6818239A43AB68AF
:100180001343CB602A68C021090613699B009B08B2
:100190006E680E401E4316616A688A420DD041089F
:1001A0008A420AD0824208D05E490E685E4B3340D4
:1001B000F026B60316401E430E60296B002900D0BE
:1001C000C10C2A69104002D05000400801E0802094
:1001D00080030090A87E2A7E93036A7ED2031A438E
:1001E000430313431943EA680A43009911432C223D
:1001F000AA5C56000E432021695C01290ED100281B
:1002000004D1300080267602064307E06068202192
:1002100001436160A06801210143A160686A002870
:1002200005D0E021490001403143AE6A0E43286CFD
:10023000696C0143AA6C0A43E86C10433C21695C79
:10024000012902D10100012008432968CA68374BFF
:1002500013403343CB6029680A69354B1340184378
:1002600008616A6B00212868FFF726FFAA6B3149F5
:100270002868FFF721FF2869002806D12868816ACD
:100280000F22D2430A43826221E0802189038842FF
:100290001DD10022E16890000B00C3401807000F39
:1002A0000F2802D0521C082AF5D30F20C043012A80
:1002B00004D129688A6A1043886208E02A68936A30
:1002C000EB695B1E5B07DB0E9840014391620220E5
:1002D000C0432968C968184A0A40B24207D10021C0
:1002E000A160616808400121014361600EE061681E
:1002F00008401021014361600127A0683843A060D5
:1003000004E0606810210143616001273800F2BDFC
:1003100000000000E8FFFF7FC8010020400D03003F
:10032000FFFEFFFF08270140FFFFC3FF1902FEFF8A
:1003300002FCFFDF04FFFF07E7FF3F83F3B581B057
:100340000400160021688A68042702203A4043D13D
:100350005422A25C012A3FD00122542562551F4D30
:10036000CB6813400AD18B68134003D08B682B40B5
:10037000184388602068C1680A43C260200000F00A
:100380007DF9010028D10096029A2000543041687E
:10039000134B0B40B9011943416000218160114B9F
:1003A000266DF362104B266D3363104B266D73631D
:1003B0001C232668336001702068416810230B43BA
:1003C0004360009B21684031206D00F051FB2168A3
:1003D0008A6815402F438F60FEBD0000E8FFFF7F55
:1003E000FEF1FFFFE5060008710700087B07000823
:1003F000F1B585B000206A465070019005985422EE
:10040000805C012801D102201EE105985430029041
:100410000125057005980668B068400700D506E11B
:1004200001910598006903900198406804908749FC
:10043000874A884880231B06049C022C039C00D119
:10044000CBE09C4201D0844207D101980068B46A95
:100450004003400B2043B06280E0019800680F2405
:10046000470302D14000C50E47E0284244D1870728
:1004700043D40425284201D002253EE0070701D5D8
:1004800003253AE0C70638D4850601D5052534E0B2
:10049000450601D5062530E0050601D507252CE0E7
:1004A000C50501D5082528E0850501D5092524E0E5
:1004B000450501D50A2520E0050501D50B251CE0E1
:1004C000C50401D50C2518E0850401D50D2514E0DF
:1004D000450401D50E2510E0050401D50F250CE0DB
:1004E000C50301D5102508E0850301D5112504E0D9
:1004F000400301D5122500E000250498C006C00E77
:100500006F4638700298C768BC46684607780F2067
:10051000B840674687436846007885403D43029867
:10052000C56001984068059DED6987087F1CBD4244
:1005300014D3019D2D68C006C00E6F463870B76A8F
:10054000BC46684607780F20B84067468743A80E28
:1005500004406846007884403C43B4620198806857
:10056000019C2568059C24682D026669AE432840DD
:10057000394D0540354365610198046823405ED0DC
:100580001368C8431840354B9C4214D180231B0488
:10059000184254D114682140084303431360304883
:1005A0000068304900F0DAF901900198002846D03F
:1005B0000198401EF8E72C4B9C4202D180235B043B
:1005C00004E02A4B9C423AD18023DB03184236D107
:1005D000146821400843034327E09C4201D0844231
:1005E00006D101980068B46A4003400B8443B462AA
:1005F00001980468234022D01368C8431840174B61
:100600009C4203D113681940194B0CE0164B9C42D5
:1006100003D113681940174B05E0144B9C420ED1CF
:1006200013681940144B03400B43136007E0029812
:1006300040682021014302984160684645700020CF
:10064000029908706846407806B0F0BDFFFF3FFE93
:10065000082701400400008000FFFF07001000B0E1
:10066000C8010020400D0300004000B8002000B485
:10067000FFFF7FFFFFFFFFFEFFFFBFFFF8B5050095
:1006800028688168012421402AD110278168374ACF
:100690000A401DD18168344A0A4022438260687E44
:1006A00001281DD000F0F6FA0600286800682040F6
:1006B00016D128688068204005D1286881682A4AB8
:1006C0000A402243826000F0E5FA801B0328ECD345
:1006D000A86D0743AF65E86D0443EC650120F2BDEA
:1006E0000020F2BD38B5846AA16D50220A402CD199
:1006F000A06D802189000143A1652068FFF7E7FC18
:1007000000281ED0A07E00281BD1206800680007AA
:1007100017D501252068FFF7E2FC00280AD12068E0
:1007200041680C2291434160A06D0E4901400D4388
:10073000A56506E0A06D20210143A165E06D05439C
:10074000E565200000F0ACFA31BDA16DC90603D506
:10075000200000F0A6FA31BD216D496B884731BDFC
:1007600000000000FFFEFFFFE8FFFF7F1700008092
:1007700080B5806A00F096FA01BD80B5806A816D0F
:1007800040220A438265C16D04220A43C26500F01B
:1007900088FA01BD80B56848012142680A43426079
:1007A00042681140009100998021490502680A437E
:1007B00002600068014000910098C020C00000F075
:1007C00085FA01BD70B586B004001422002101A88D
:1007D00000F08AFA20685949884234D1584880216B
:1007E0004903C2680A43C260C2681140009100997F
:1007F000012102680A4302600068084000900098E6
:100800000191032002900025039501A9A020C005B5
:1008100000F074FA4B4E4C48306005207060B560B3
:10082000F56080203061803070618000B061F561DA
:1008300080003062300000F0CBF8002801D000F0DA
:10084000FDFC2665B46206B070BD10B586B004002C
:100850001422002101A800F047FA20683B49884291
:1008600020D10220364C21680143216021680840D4
:1008700000900098C020800001901220029001207A
:100880000390002004900620059001A9304800F054
:1008900035FA80208003A1680143A160A168084067
:1008A0000090009806B010BD10B586B00400142268
:1008B000002101A800F018FA21682148254A914238
:1008C0000ED1102182680A43826080680140009145
:1008D000009800220021112000F0CFFC112026E01A
:1008E0001D4A914225D1D10BC2680A43C260C26839
:1008F000114000910099012102680A4302600068DA
:100900000140009100988020019002200290002078
:10091000039004900420059001A9A020C00500F0D8
:10092000EDF900220021132000F0A7FC132000F0B5
:10093000A8FC06B010BD00003C100240002401409D
:1009400034100240E0010020080002400054004042
:10095000000400500010004000200040094214D064
:1009600088420FD30122030C01D10004120400239A
:1009700000185B418B4200D35B1A5241F8D3190037
:100980001000704701000020704708B500F09EFC81
:1009900008BD30B501684118446862088A18836848
:1009A000E40704D54C461B1901E0641C09D19142AF
:1009B00003D00C7864B2491C01E00C3030BD0D78D6
:1009C000491C1D705B1C002CEFD4641EF7D5EEE7AC
:1009D00038B5040001D1012032BD206849494018D2
:1009E0001421FFF7BBFF8000206402202521605402
:1009F000206800684449014020680160206801685F
:100A0000A2680A43E168114322690A4361691143FC
:100A1000A2690A43E1691143226A0A430260200085
:100A200000F009F90025A0688021C901884200D1A1
:100A300065602079616C0860E06CA16C486060685A
:100A400000280AD0052808D2200000F009F9206DFE
:100A50000560A06D616D486002E025656565A5656E
:100A6000E56301202521605424202554002032BD57
:100A7000F3B581B00400002500272420205C012864
:100A800001D10220FEBD0126242166540220252129
:100A9000615C01292FD1009225216054E563206813
:100AA0000168B1430160009A0299200000F0A4F8A7
:100AB0002068216B0029016801D00E2205E0042284
:100AC00091430160206801680A220A430260606C59
:100AD00031020268D20302D502680A430260206D27
:100AE000002803D000680143206D01602068016880
:100AF0000E43066002E02422A55402272420255438
:100B00003800FEBDF8FFFDBF0F80FFFFFEB55B495B
:100B10000A6802920268136801934023C35C1C2494
:100B20001C406B461C7020230424029D6E463678C0
:100B30000427B7402F4015D0019D254012D01568DD
:100B40002B4002D11368A34313604A684023C35C5F
:100B50001C251D40AC4014434C60016B002949D05A
:100B60008847F7BD01240025029EB44602276E4641
:100B70003678B740664637401BD00226019F374083
:100B800017D017683B4005D113680A27BB43136091
:100B9000252284544A684023C35C1C241C40A64080
:100BA00016434E6024214554C16A002922D088474B
:100BB000F7BD08236E4636780827B74066463740AB
:100BC00018D0019E334015D013680E26B34313602E
:100BD0004A684023C35C1C261E400123B3401343D4
:100BE0004B60C4632521445424214554416B0029A2
:100BF00000D08847F7BD0000F0B5C46C856C6C6010
:100C0000046D002C02D0846D456D6C601C4C266810
:100C10004025475D1C253D400127AF4037432760F5
:100C2000046863608068102802D1A260E160F0BDB2
:100C3000A160E260F0BD10B50400207808381421EE
:100C4000FFF78CFE216C032291430E4A89186164E0
:100C50000D49A16401211C2202409140E16410BDB4
:100C600001798A00094BD2180265094A42650122BE
:100C7000491E8907890F8A4082657047000002403B
:100C8000040002400008024080080240FC080240C4
:100C90004009024001480068704700BFBC010020C5
:100CA000704770477047FEE710B500240B48016895
:100CB000820D0A430260002000F00AFB002801D0E8
:100CC000012401E0FFF766FD200010BD04490A6819
:100CD000044B134018430860704700000020024096
:100CE00000000140FFF9FFFF10B5040008001100EB
:100CF0000200200000F012FB200010BDFCB5002215
:100D0000012300932CE0052703E0524FB842FAD1AB
:100D10000327A74037432F604F4C2568DC4325400D
:100D20004E68F60300D51D434B4E3560756825406F
:100D30004F68BF0300D51D437560484D2E6826409F
:100D40004D68ED0200D51E43444D2E606E68344060
:100D50004E68B60202D526001C0034436C60521C5B
:100D60000C682300D34066D0009B9340019323403E
:100D7000F5D04C68022C01D0122C10D1D408A4005C
:100D800005192C6A97001C263E400F27B740BC432C
:100D90000F69BC4637006646BE4026432E62066891
:100DA00054000327A740FD432E400F79BF07BF0F14
:100DB000A740374307604E68012E05D0022E03D0AE
:100DC000112E01D0122E11D186682E40CF68A74077
:100DD000374387604768019EB743BC464E68370972
:100DE000009E3E40964067463E434660C66835409A
:100DF0008E68A6402E43C6604C68E400AFD5184C00
:100E00009508AD0065192E68D70018243C400F27BF
:100E1000A740BE43A027FF05B84201D1002778E7CD
:100E2000104FB84201D1009F73E70F4FB84200D076
:100E30006BE702276DE7F3BD002A01D0816170479F
:100E40008162704742690A4001D0816270478161C6
:100E500070470000000C005080180240001802404B
:100E6000601802400004005000080050F8B588B037
:100E7000FFF71AFF00F096F91422002101A8FFF7EE
:100E800033FFC74C20680121014321602068C1075E
:100E9000C90F009100980220216801432160216858
:100EA000084000900098650DA027FF05002229004A
:100EB0003800FFF7C1FF019501200290002603963C
:100EC000049601A93800FFF719FF6068012101436A
:100ED00061606068C107C90F00910098002200217D
:100EE000092000F0CAF9092000F0CBF9C74F3800FB
:100EF00084300390C64803998860C6480399C86047
:100F0000039806610120039948610398866103985C
:100F1000C6610398066203984662039886623800A9
:100F20008C3000F023FA002138008C3000F03AFDBC
:100F3000002138008C3000F052FD0C220021684660
:100F4000FFF7D2FEB4480399486579200399886574
:100F50000398C6650120039908660398C6663800A1
:100F6000D83000F065FD0096029669463800D8300A
:100F700001F00AF81022002104A8FFF7B5FEA748E7
:100F80008C2149007850781846608660A44879180A
:100F9000C8608C204000381806618C20400038184A
:100FA00086618C204000381800F042FD8C20400003
:100FB000381800F0B7FD04960120059006960796B4
:100FC000002204A98C204000381800F091FE0C2269
:100FD00000216846FFF788FE92483860680578600F
:100FE000BE60FE603E61042078613E83BE760120D3
:100FF000F86120217E547E62BE622C217E543E63C5
:101000007E63BE633C217E54FE643800FFF76BF8BC
:10101000012000900196029669463800FFF7E8F932
:101020003800D83000F013FD00218C204000381823
:1010300000F087FD380064300490AC204000381880
:101040000590FA25AD0078480078002808D0764948
:101050000E700122DC20400039183800FFF76EF9CD
:1010600072480078002801D070490E7070480078EE
:10107000002801D06E490E706E4800780028E2D03A
:101080006C490E703C008C340398007801280ED116
:1010900003990E70029508200190BC20400038187A
:1010A000009001232022DE21200000F077FA03982F
:1010B000407801280ED103994E70029508200190C6
:1010C000CC2040003818009001232022DE2120008F
:1010D00000F0A6F90398807801280CD103998E704E
:1010E0000295082001900598009001230022DE213E
:1010F000200000F053FA0398807901280AD1029564
:10110000082001900598009001230022DE21200094
:1011100000F044FA0398C07801280CD10399CE70EE
:101120000295082001900498009001230022DE21FE
:10113000200000F075F90398007901281ED1039969
:101140000E71082004990870802004990871029596
:10115000012001900498009001230722DE21200045
:1011600000F05EF90295012001903800683000908F
:1011700001230022DE21200000F052F9039840797B
:1011800001280CD103994E71029501903800663008
:10119000009001230722DE21200000F041F952E7F0
:1011A0003410024010B598B0342200210BA8FFF78C
:1011B0009BFD102200216846FFF796FD1C220021AE
:1011C00004A8FFF791FD8020800000F00BFF0220B3
:1011D0000B90FE300E9000240F944020109012943B
:1011E0000BA800F025FF07200090019402940394BF
:1011F0000021684601F004F90F480490079409940F
:1012000004A801F001FA18B010BD00000000002091
:10121000005400405B3D30000010004000200040C2
:10122000FFFF000000240140CC010020CD01002080
:10123000CE010020CF010020404000007047FEE7B3
:1012400010B5C20018231340FF249C40E2438907D5
:10125000090E9940030004D418489B089B00C0184D
:1012600006E0174B0007000F0838800880001818A8
:1012700003681A401143016010BD80B5FFF7E0FF1D
:1012800001BD010005D40121C006C00E81400D48FA
:101290000160704710B5401E80214904884201D387
:1012A000012010BD084C606003210020C043FFF7FF
:1012B000C7FF0020A0600721216010BD00E400E00E
:1012C0001CED00E000E100E010E000E07047FEE708
:1012D00070B5060000240F4DA968002916D0FA2029
:1012E0008000FFF73BFB01000B480068FFF736FB6F
:1012F000FFF7D0FF002809D1042E07D200223100C9
:101300000020C043FFF7B9FF6E6000E00124200019
:1013100070BD00BFBC010020C80100201206130AE6
:101320001A43130C1A4300BF094205D0830705D0A6
:101330000270401C491EF9D170470000130010399B
:1013400006D330B41400150010393CC0FCD230BCB8
:10135000490700D30CC000D504C0890002D3028025
:10136000801C002900D502707047FEE770B50400AC
:1013700001D1012070BD2500403500266878002885
:1013800003D12E702000FFF760FA242068702068D7
:10139000016801229143016060681E490140206894
:1013A000016121681C488A6802408A60E16801295D
:1013B000A16801D1C24301E0842212020A432168DC
:1013C0008A60E168022903D1802109012268516005
:1013D00021684A68114B13434B602168CA6810406A
:1013E000C860206961690143A0690002084321685F
:1013F000C860E069216A01432068016020680168D3
:1014000001220A4302606E60202068702663AE707D
:10141000002070BDFFFFFFF0FF7FFFFF0080000294
:10142000FEB504000F0016001D0040304078202853
:1014300000D0B1E00898002803D06846808C0028CE
:1014400005D180208000210040314860A2E040208A
:10145000205C012800D19FE0012040216054FFF76B
:1014600019FC0290009019230122D103200000F002
:10147000CFF90028EAD12B00320021202100403191
:101480004870402021004031887000202100403108
:101490004860089860626846808C608500206063C0
:1014A000029801900A9800903900200000F044F959
:1014B000002803D00020402160546BE0608DFF289D
:1014C0000DD9FF2020850020009080235B04FF229F
:1014D0003900200000F050FA0A9E029D07E0628D5C
:1014E00022850020009080239B04D2B2F0E72A00DE
:1014F0003100200000F0B8F900284BD1606A007874
:1015000021688862606A401C60628848618D0918A1
:101510006185218D08182085618D002920D0000467
:101520001ED10095330000228021200000F070F9C8
:1015300000282FD1608DFF2807D9FF2020850020AB
:10154000009080235B04FF2206E0628D228500204C
:10155000009080239B04D2B23900200000F00CFAE6
:10156000608D0028C3D131002A00200000F0A5F9C9
:1015700001000DD120202268D061226853686C4D93
:101580001D40556022004032507000209070107055
:10159000080002D00120FEBD0220FEBDFEB584B0D1
:1015A000060040304178202900D0BCE00C99002989
:1015B00002D00D9F390003D1802189004160B0E045
:1015C0004020305C012800D1ADE0350040350120DD
:1015D0002870FFF75FFB04003068806900040DD5B8
:1015E000FFF758FB001B1A28F6D320206968014337
:1015F000696068700020A870287092E002966846C2
:10160000038B828A3046403003902220687040204D
:10161000039988700026039846600C9802994862E6
:10162000029847850298466301940E980090684698
:10163000018A029800F0AEF8002802D003980670E4
:101640006FE08020400401903A480299498DFF29BB
:101650000DD9FF21029A11850090019BFF22684657
:10166000018A029800F088F9029D0E9F07E0029916
:101670004A8D0A85009080239B04D2B2EFE7009444
:101680003B0000220421280000F0C2F8002848D1C5
:101690002868406A696A0870686A401C6862234961
:1016A000288D401828856A8D51186985698D002913
:1016B0001ED000041CD100943B0000228021280091
:1016C00000F0A6F800282CD1688DFF2805D9FF204E
:1016D00028850096019BFF2205E06A8D2A850096E9
:1016E00080239B04D2B26846018A280000F044F9A6
:1016F000688D0028C3D139002200280000F0DDF8F1
:1017000001000CD120202A68D0612A685368084C57
:101710001C4054602A0040325070967016700800C9
:1017200002D0012000E0022007B0F0BDFFFF000062
:1017300000E800FE00240080F8B5060015001C003B
:10174000079F2B48009080235B04E2B2300000F03A
:1017500013F93A000699300000F086F8002817D1F6
:10176000012C09D0280A316888623A0006993000B5
:1017700000F07AF800280BD1EDB23068856200974E
:10178000069B00228021300000F042F8002800D0A3
:101790000120F2BDF8B5060015001C00079F144893
:1017A00000900023E2B2300000F0E6F83A0006991B
:1017B000300000F059F8002817D1012C09D0280A70
:1017C000316888623A000699300000F04DF8002830
:1017D0000BD1EDB2306885620097069B0022402154
:1017E000300000F015F8002800D00120F2BD000004
:1017F0000020008000688169890701D5002181628D
:10180000012182690A4002D18269114381617047D6
:10181000F8B5002405000F00684602701E00286815
:1018200080693840B84201D1012000E000206946BB
:101830000978884216D10020C0438642EFD0FFF7D6
:1018400029FA0699401A864201D3002EE7D12800D2
:101850004030202142680A43426041708470047025
:101860000120F2BD0020F2BD70B504000D0016008D
:101870002068806980071ED432002900200000F013
:1018800042F8002801D0012070BD0020C0438542ED
:10189000EED0FFF7FFF9801B854201D3002DE7D181
:1018A00020004030202142680A43426041700021FC
:1018B00081700170E7E7002070BDF8B520250400B5
:1018C0000E0017002068806928401AD13A003100C4
:1018D000200000F018F8002807D1FFF7DBF9C01B43
:1018E000864204D3002EEDD101E00120F2BD20009C
:1018F000403041682943416045700021817001708A
:10190000F3E70020F2BDF8B5102403689B6923407B
:1019100030D005000F0000922026286881693140F0
:1019200011D10020C0438742F7D0FFF7B3F90099E7
:10193000401A874201D3002FEFD128004030416880
:101940003143416010E0C4612868C6612800FFF798
:1019500051FF28684168114A0A404260280040301F
:10196000416804220A434260467000218170017080
:101970000120F2BD0020F2BDF0B5059C006845686D
:10198000660D074F3743BD438905890D294312046E
:101990000A4313431C434460F0BD000000E800FE0E
:1019A000FF63FF0370B5020040325378202B14D13F
:1019B0004023C35C012B10D00123137024245470E6
:1019C000046825689D43256004682568164E2E40EE
:1019D00026600468256829431CE0022070BD70B5AC
:1019E000020040325378202B12D14023C35C012BDC
:1019F0000ED00123137024245470046825689D437D
:101A0000256004682568094E2E400902314301E033
:101A1000022070BD2160006801680B430360202034
:101A200050700020107070BDFFEFFFFFFFF0FFFF50
:101A300010B5040001D1012010BD3D20205C00281C
:101A400004D13C2160542000FEF72EFF11E0006815
:101A50000121C2680A43C26083680C4A1A40062A00
:101A600005D00B049A4202D00268114301600020A5
:101A7000704702203D216054211D206800F0EDF9DF
:101A800001203D216054002010BD0000070001002E
:101A90000400080006D0042908D008290AD00C291F
:101AA0000CD010E02068C26802230AE02068C268F7
:101AB000042306E02068C268082302E02068C268A8
:101AC00010231343C3600122206800F04FFA2068FE
:101AD0000F49884208D00F49884205D00E498842F4
:101AE00002D00E49884204D1416C802212020A437E
:101AF000426482680A491140062907D080225202B6
:101B0000914203D0016801220A430260002010BD07
:101B1000002C0140004001400044014000480140C9
:101B20000700010010B5040001D1012010BD3D20C7
:101B3000205C002804D13C216054200000F016FEF7
:101B400097E710B50400080006D0042908D008293A
:101B50000AD00C290CD010E02068C26802230AE0E9
:101B60002068C268042306E02068C268082302E0F7
:101B70002068C26810231343C3600122206800F06C
:101B8000F5F92068B5E7F8B50400206800250226BD
:101B90000169314015D0C168314012D00221C943DA
:101BA0000161012121778069800703D0200000F0C6
:101BB000DEFD05E0200000F0DBFD200000F0D9FD97
:101BC0002577206804270169394016D0C16839405B
:101BD00013D00421C943016126778069C02189009F
:101BE000014003D0200000F0C2FD05E0200000F01D
:101BF000BFFD200000F0BDFD2577206808260169A3
:101C0000314014D0C168314011D00821C94301616D
:101C10002777C069800703D0200000F0A8FD05E009
:101C2000200000F0A5FD200000F0A3FD257720682E
:101C3000102102690A4016D0C268114013D0102149
:101C4000C94301612677C069C0218900014003D0E2
:101C5000200000F08CFD05E0200000F089FD200050
:101C600000F087FD25772068012102690A4008D02D
:101C7000C268114005D00121C9430161200000F074
:101C800079FD206880250169294008D0C168294074
:101C900005D08021C9430161200000F06CFD20685F
:101CA0000169C90507D5C1680D4004D058490161D3
:101CB000200000F061FD2068402102690A4008D040
:101CC000C268114005D04021C9430161200000F0E5
:101CD00054FD2068202102690A4008D0C2681140E2
:101CE00005D02021C9430161200000F047FDF1BD6E
:101CF000FEB505003C20285C012801D10220FEBD74
:101D000001203C23E85402203D23E8540C27FF43E4
:101D10000C00002A0DD1E36862682168286800F091
:101D2000E3F8286881690F40876128688169A268A3
:101D300010E0384E042A10D1E368626821682868F0
:101D400000F0F0F8286881690E4086612868816992
:101D5000A26812020A43826152E0082AE06825D193
:101D60006168019121682A68136A294E1E40166233
:101D7000D369166A00960326B343019E1E43F023DF
:101D80009E43000103403343D361009B2248184027
:101D90000902A0231B010B40034313622868C16999
:101DA0000F40C7612868C169A26827E00190606898
:101DB00021682A68136A194F1F401762D369009778
:101DC000174F1F4003023B4316481840019B1B035B
:101DD000F0273F021F400743D761009B124818407D
:101DE0000903A0231B020B40034313622868C16947
:101DF0000E40C6612868C169A26812020A43C26126
:101E000001203D21685400203C216854FEBD0000A3
:101E1000FFFEFFFFFFF3FFFFFFF5FFFFFFEFFFFFF9
:101E2000FFFCFFFFFF0FFFFFFF5FFFFF020000202F
:101E3000002906D0042907D0082908D00C2909D088
:101E400070471068406B70471068806B704710686F
:101E5000C06B70471068006C7047F0B506681B4A8D
:101E60001B4B1C4C1C4DA84201D0A04206D1702730
:101E7000BE4337004E683E43A8420BD0A04209D073
:101E8000164CA04206D0984204D0904202D0154C85
:101E9000A04203D1124C3440CE6826438024A6438E
:101EA0004C69344304608C68C4620C688462A84244
:101EB00006D0984204D0904202D00A4A904201D102
:101EC0000969016301214161F0BD00000044014046
:101ED0000040014000040040002C01400020004070
:101EE000FFFCFFFF0048014070B5046A0125AC43C8
:101EF00004628569046A184EB04205D0184EB0429B
:101F000002D0164EB04202D10326B54300E00122B2
:101F10002A43F025AA431B011D40154385610A226F
:101F2000944315E070B5046A1025AC4304628569DA
:101F3000046A0C4E2E40120232430B4D15401A0318
:101F4000F0231B0213402B438361A0229443090119
:101F50000A402243026270BD002C01400040014053
:101F600000040040FFFCFFFFFF0FFFFF10B5C90694
:101F7000C90E036A01248C40A3430362036A8A40AA
:101F80001A43026210BDFEE7F0B50A003C21415C35
:101F9000012901D10220F0BD03003C3301241C7053
:101FA00002213D25415505686E68A9680B4FBD4269
:101FB00003D10B4F374056683E438027B94397689B
:101FC0000F4370218E4311683143696001688F604F
:101FD0003D21445400201870F0BD0000002C014049
:101FE000FFFF0FFF10B50E4C21680E4A0A40024356
:101FF0002260610D884210D10B48006806214843D9
:102000000A49FEF7ABFC401C00E0401E616949052F
:1020100003D50028F9D1032010BD002010BD000019
:1020200000700040FFF9FFFFC801002040420F0090
:10203000FEB507001BD0A84C3878C00719D5A16899
:1020400038200840E1688025AD02102808D18807B3
:10205000800F032806D079686808814234D13BE0BC
:102060000828F8D12068054003D07868002800D1FE
:10207000B7E1387880077BD5A06838210140E26855
:10208000B948BA4D10294ED19207920F022A4CD06E
:10209000F968002900D196E02168084039690143B8
:1020A00021602068A10D01432160FEF7F3FD3E0091
:1020B00007002068400500D57DE0FEF7EBFDC01B62
:1020C0000328F6D30320FEBDA022D202914207D1FD
:1020D000216882000A43226021680843206007E0EB
:1020E0002068A349014021602068A2490140216085
:1020F000786800280BD0FEF7CDFD06002068284048
:10210000B7D1FEF7C7FD801B6528F7D3DAE7FEF7E6
:10211000C1FD060020682840ABD0FEF7BBFD801B48
:102120006528F7D3CEE70029B2D12268520502D53F
:10213000FA68002A3ED0626815407A6912022A4382
:10214000626000290ED1216808403969014321608D
:10215000A648012122689204520F9140FEF7FEFB2F
:10216000A3490860A3480068FFF7B2F8002821D10E
:102170000225387800070AD5A068382101401829BF
:1021800031D1206E284002D0B869002812D03878AA
:10219000400700D4A9E000200190A0683821014048
:1021A000202942D1E06D054000D19EE0B8680028AA
:1021B00000D09AE015E1606805407069000228438C
:1021C00060603700D4E720688B4901402160FEF74A
:1021D00061FD050020684005CAD5FEF75BFD401B88
:1021E0000328F7D36EE7B8690028206E0ED00121CE
:1021F00001432166FEF74EFD0600206E2840C6D141
:10220000FEF748FD801B0328F7D35BE701218843D5
:102210002066FEF73FFD0600206E2840B7D0FEF78F
:1022200039FD801B0328F7D34CE7E806E16B01403A
:1022300008D1E16B0143E163E16B08400090009835
:10224000012001906D4D2868C00512D4A00D0090AA
:102250002868009901432960FEF71CFD06002868E4
:102260000099014005D1FEF715FD801B0328F6D328
:1022700028E7B8680121012805D00528E06D06D1BE
:1022800004220243E265E06D0143E16505E0884315
:10229000E065E06D04218843E0650226B868002807
:1022A0000CD0FEF7F7FC0500E06D304016D1FEF7CC
:1022B000F1FC401BA6498842F6D303E7FEF7EAFC8F
:1022C0000500E06D304009D0FEF7E4FC401BA0495A
:1022D0008842F6D3F6E600BF0010024001980028BD
:1022E00003D0E06B9B490140E163F86900287AD094
:1022F000A16838220A40102A54D08026B604964994
:102300000228206838D101402160FEF7C3FC050097
:102310002068304005D0FEF7BDFC401B0328F7D3F2
:10232000D0E6E0688D490140386A0843796A014384
:10233000B86A00020843F96A0143386B0843E06059
:102340002068710801432160E068F1000143E16009
:10235000FEF7A0FC05002068304044D1FEF79AFC4F
:10236000401B0328F7D3ADE6FFC7FFFFFF80FFFF49
:10237000FFFFFEFFFFFFFBFF01402160E06803213C
:102380008843E060E06897490140E160FEF782FC25
:1023900005002068304026D0FEF77CFC401B032857
:1023A000F7D38FE601281CD0E0688107890F3A6ACD
:1023B000914216D1702101407A6A914211D1FE21D9
:1023C000C9010140BA6A120291420AD1F821890377
:1023D0000140FA6A914204D1400F4007396B8842AC
:1023E00001D00120FEBD0020FEBD00000024F4004D
:1023F000C8010020C0010020FFFEFFFF0070004068
:10240000F8B5070066D00091774800684007400F94
:10241000884218D2744C20680721884300990143F0
:102420002160FEF737FC009D060020684007400F42
:10243000A84207D0FEF72EFC801B45498842F4D302
:102440000320F2BD00953968694C022001420CD08E
:10245000490704D5A168E022D2010A43A260A1681D
:10246000624A0A40B9681143A1600725ED433978F3
:10247000C90732D57968012918D12068800329D588
:10248000A06828400143A160FEF704FC3E0007005D
:10249000A068382101407068C00081421CD0FEF75E
:1024A000F9FBC01B2A498842F2D3C9E7022902D1AD
:1024B0002068800103E0002903D120684005DFD4B3
:1024C00008E0032903D1226E1040D9D102E0E26D69
:1024D0001040D5D10120F2BD37000098424909686B
:1024E0004907490F884217D23F48006805400098C5
:1024F00028433D490860FEF7CDFB009D06003A48A1
:1025000000684007400FA84206D0FEF7C3FB801BBF
:102510000F498842F3D393E73878400705D5A06880
:1025200034490140F8680843A06000F019F83249C6
:10253000A2681205120F9200895CC906C90EC84034
:102540002E4908602E480068FEF7C2FEF2BD00006A
:1025500089130000FFFFFFEFFFFFFFFE8C80C11F0C
:1025600030B507212748224C3823A2681A4006D1EB
:1025700023680122DB0A19408A4011001EE042084C
:10258000A5681D40082D01D1100030BDA5681D4073
:10259000102D16D1E368E5682D092940491C7F25D7
:1025A0009B079B0F032B00D11000FEF7D7F9E168C2
:1025B000090A0D406843E168490F491CFEF7CEF94E
:1025C00030BDA0681840202802D18020000230BD14
:1025D000A0680340182B02D1FA20C00130BD0020B2
:1025E00030BD0000FFFFFEEF00200240FFF0FFFFC4
:1025F00000100240FF8FFFFF84280008C801002060
:10260000C00100200024F400FEB5040000206A464A
:1026100010704E4D2168890355D5019080204005EA
:10262000296B014008D1296B01432963296B0840BC
:10263000019001980120019045480068A90D0143CF
:1026400043480160FEF726FB060041480068C005CC
:1026500005D4FEF71FFB801B0328F6D323E0296D6A
:10266000C020800008403B4F00280ED0A16988425E
:102670000BD0286D3840296D802252020A432A650A
:10268000296D354A0A402A652865C0070FD5FEF72F
:1026900001FB0600286D800709D4FEF7FBFA801BBA
:1026A0002E498842F6D303206946087004E0286D5D
:1026B0000740A069384328650198002803D0286B9B
:1026C0002749014029632078C00705D5A86C03215C
:1026D000884361680143A9642078800705D5A86C08
:1026E0000C218843A1680143A9642078400605D5E0
:1026F000A86C1C490140E0680843A8648020C00120
:10270000216801400DD0A96C8900890862690A43DB
:10271000AA6461690204914203D1296882000A43D4
:102720002A60216809050DD5A96C0F4A0A40216964
:102730001143A9642169814204D12868802149029A
:102740000143296068460078FEBD00000C1002407D
:1027500000700040FFFCFFFFFFFFFEFF8913000039
:10276000FFFFFFEFFFCFFFFFFF3FFFFF7047704707
:102770007047704770477047704770477047FEE773
:102780007047FEE77047704710B500F073F83149A5
:1027900031488288531801221C0401D102700A2397
:1027A0008380C3885B181C0401D142701923C38045
:1027B00003895B181C0401D182706423038143895F
:1027C00059180B0402D1C270FA218900418110BD51
:1027D00080B52248FEF79AF901BD80B580218900B5
:1027E000A020C005FEF72EFB1D48FFF7CCF901BD68
:1027F000F8B51C4F1C480078012827D10A24E4436F
:1028000000251A4E3078012829460DD13800FFF7EF
:102810000DFB7080002039680A6A14400C620A6A55
:10282000022313430B6210E03800FFF7FFFAB08079
:10283000B0887188401A0E490880012039680A6AF8
:1028400014400C620A6A0A624D6230703800FFF769
:102850009AF9F1BDFFFF0000CC010020E00100204B
:10286000D8000020180100203E020020D8010020DE
:102870003C020020024801688268891801607047A4
:10288000BC0100200000000000000000000000006B
:102890000000000000000000000000000000000038
:1028A0000000000001000000020000000300000022
:1028B00004000000060000000700000008000000FF
:1028C0000900000070B40123002413E00168001D1A
:1028D000194202D04D466918491E0C60091D121F8D
:1028E000042AFAD20D00960701D50C80AD1C1A40BF
:1028F00000D02C700268001D002AE7D170BC704720
:1029000010B5074979441831064C7C44163404E06C
:10291000081D0A68891888470100A142F8D110BD36
:1029200008000000240000009DFFFFFF6000000081
:10293000E0010020000000005BE0FFFFB4000000A9
:10294000560000000000002000F00DF8002801D023
:10295000FFF7D6FF00BF00BF002000BF00BFFEF79B
:1029600085FA00F002F80120704780B500F002F807
:1029700001BDFEE70746384600F002F8FBE7FEE738
:1029800080B500BF00BF024A11001820ABBEFBE7B4
:10299000260002000548014603B4684680F3098812
:1029A00000BF00BF00BF00BFFFF7CEFFA5EDF5FEE3
:1029B0000148804701480047C129000895290008BF
:1029C00080200005014908607047000008ED00E024
:1029D000FEE7FEE7FEE7FEE7FEE7FEE7FEE7FEE7CF
:1029E000FEE7FEE7FEE7FEE7FEE7FEE7FEE7FEE7BF
:1029F0008100FB000001FD00020100018100810057
:102A0000C9000004FD000001FC000124F4FB0008E3
:0B2A10000A0019006400E80301FB004D
:040000050800299531
:00000001FF
