:020000040800F2
:10000000A0040020ED1700080D1800080F180008C4
:1000100000000000000000000000000000000000E0
:10002000000000000000000000000000111800089F
:100030000000000000000000131800081518000858
:10004000370E0008000000001310000863100008BD
:10005000AF170008BB1700083D1800083F1800083C
:100060000000000041180008431800084518000867
:1000700047180008491800084B1800080000000045
:100080004D1800084F1800085118000853180008B0
:100090005518000857180008591800085B18000880
:1000A0005D1800085F180008611800086318000850
:1000B000651800086718000838B5040014D025003A
:1000C0007C356868002803D12870200000F053FBBD
:1000D00024206860206801680122914301602000AB
:1000E00000F020F8012801D1012032BDA06A0028CB
:1000F00002D0200000F040FA20684168084A0A4017
:100100004260206881682A2291438160FFE720686D
:10011000016801220A430260200000F097FA32BD14
:10012000FFB7FFFF51B582B000206A4610700299F8
:1001300009680A689B4B1340029A92681A43029B13
:100140001B691343029A52691A43029BDB691343EA
:10015000029A526E1A430A604A68994B1340029AF7
:10016000D2681A434A608A68964B1340029A926991
:100170001A43029B1B6A13438B60CA6A0F239A437C
:10018000029B5B6A1343CB62934A944B994208D11A
:1001900011688907890F21D0022910D011D30329B2
:1001A0000BE0934B994210D111680C220A4012D0F7
:1001B000042A06D0082A02D00C2A04D00DE002211D
:1001C0000CE004210AE0082108E0904A914202D0A4
:1001D0008F4A914201D1002100E010210191802637
:1001E0007600B20153000299C9699942019900D081
:1001F000C2E0002906D0022907D004293BD00829F3
:1002000075D0ABE000F0C3FD37E00298406A0028EB
:100210002BD0012801D1824828E0022801D1814851
:1002200024E0032801D1804820E0042801D17F4840
:100230001CE0052801D17E4818E0062801D17D4840
:1002400014E0072801D17C4810E0082801D17B4840
:100250000CE0092801D17A4808E00A2801D1794840
:1002600004E00B2801D1784800E0784802994968F9
:100270004A0880186EE000F049FD0299496A002999
:100280002BD0012901D1022128E0022901D104212A
:1002900024E0032901D1062120E0042901D108210D
:1002A0001CE0052901D10A2118E0062901D10C2101
:1002B00014E0072901D1102110E0082901D12021E3
:1002C0000CE0092901D1402108E00A2901D180214F
:1002D00004E00B2901D1310000E00121029A5468A9
:1002E00000F08EFD400061084018210032E00298C5
:1002F000406A002829D0012828D0022801D1130003
:1003000024E0032801D1984B20E0042801D15308B0
:100310001CE0052801D1954B18E0062801D1944B2B
:1003200014E0072801D1930810E0082801D1D30870
:100330000CE0092801D1130908E00A2801D153096A
:1003400004E00B2801D1330000E0930002984168DB
:100350004808181800F054FD80B202E001216A46F6
:10036000117001001039834A914200D3EEE002403F
:100370000007400F1043E5E0002907D0022908D00C
:10038000042965D0082900D19DE0D3E000F0FFFCEE
:1003900060E00298406A00283CD0012804D121483E
:1003A00039E000BFF369FFCF022801D11F4832E0D6
:1003B000032801D11F482EE0042805D11E482AE059
:1003C000FFCFFFFFFFF4FF11052801D19C4822E079
:1003D000062805D19B481EE0541002400038014019
:1003E000072801D1154816E0082803D1144812E067
:1003F00000440040092801D112480CE00A2801D12C
:10040000114808E00B2805D18F4804E0004800405F
:10041000004C00400248029949684A08801885E06B
:100420000024F40000127A005461510000093D00DC
:1004300000D43000AAB0280080841E0040420F0083
:1004400020A1070090D0030048E801000048E8011F
:1004500000F05CFC0299496A00292BD0012901D1E6
:10046000022128E0022901D1042124E0032901D13D
:10047000062120E0042901D108211CE0052901D131
:100480000A2118E0062901D10C2114E0072901D125
:10049000102110E0082901D120210CE0092901D107
:1004A000402108E00A2901D1802104E00B2901D173
:1004B000310000E00121029A546800F0A1FC6108BB
:1004C0004018210032E00298406A002829D0012813
:1004D00028D0022801D1520824E0032801D18D4AF6
:1004E00020E0042801D192081CE0052801D18A4AA5
:1004F00018E0062801D1894A14E0072801D1D20862
:1005000010E0082801D112090CE0092801D1520994
:1005100008E00A2801D1320004E00B2801D1802232
:1005200000E01A00029841684808101800F068FCC2
:1005300080B202E001216A461170010010390D4AB3
:10054000914203D202990968C86002E0012069461D
:1005500008700298683001214180018000214160CB
:100560008160684600785EBDAA2A000098190000E4
:1005700054150000F0FF00002821415CC90706D592
:1005800001684A68664B1340C26A1A434A602821D0
:10059000415C890706D501684A68624B1340026BCB
:1005A0001A434A602821415C490706D501684A6818
:1005B0005D4B1340426B1A434A602821415C090796
:1005C00006D501684A68594B1340826B1A434A604A
:1005D0002821415CC90606D501688A68544B13403E
:1005E000C26B1A438A602821415C890606D50168DE
:1005F0008A68504B1340026C1A438A602821415C80
:10060000490611D501684A684B4B1340426C1A43A6
:100610004A60426C80235B039A4205D14A68474B8B
:100620001340826C1A434A602821415C090606D5B2
:1006300001684A68424B1340C06C184348607047D9
:10064000006A18005558140024F40000F8B504009E
:1006500000257C30C56000F0EFFB0700394E2068B4
:100660000068000709D500963B000022802189031D
:10067000200000F01AF800280DD12068006840071B
:100680000BD500963B0000228021C903200000F01A
:100690000CF8002801D00320F2BD21007C3120207D
:1006A000486088600D700020F2BDFEB5089E0024F1
:1006B00005000F006846027001932868C069384041
:1006C000B84201D1012000E0002069460978884243
:1006D0001DD10020C0438642EFD000F0ADFB019950
:1006E000401A864201D3002EE7D128680168164AD5
:1006F0000A400260286881680122914381602800D5
:100700007C3020214160816004700320FEBD002008
:10071000FEBD000055150000CC0C0000AA0A000028
:10072000FFFFFDFFFFFFFEFFFFFFFBFFFF7FFFFF60
:10073000FFEFFFFFFFDFFFFFFFFFEFFFFFFF9FFF69
:10074000FFFFF7FFFFFFFF015FFEFFFF81B02048C3
:10075000012142680A4342604268114000910099B9
:100760008021490502680A43026000680140009147
:10077000009801B0704710B586B004001422002123
:1007800001A800F05FFB2068124988421ED112497F
:10079000802080028A6802438A608A681040009044
:1007A000009801200A6802430A600968014000912C
:1007B00000990C21019102210291039000210491E2
:1007C000059001A9A020C00500F046FB06B010BDB1
:1007D0003C1002400044004034100240FEB50700C7
:1007E0001BD0A84C3878C00719D5A168382008401C
:1007F000E1688025AD02102808D18807800F032802
:1008000006D079686808814234D13BE00828F8D1E5
:100810002068054003D07868002800D1B7E1387817
:1008200080077BD5A06838210140E268B948BA4DFD
:1008300010294ED19207920F022A4CD0F968002954
:1008400000D196E0216808403969014321602068A1
:10085000A10D0143216000F0EFFA3E00070020687F
:10086000400500D57DE000F0E7FAC01B0328F6D371
:100870000320FEBDA022D202914207D1216882004E
:100880000A43226021680843206007E02068A349EA
:10089000014021602068A249014021607868002859
:1008A0000BD000F0C9FA060020682840B7D100F04C
:1008B000C3FA801B6528F7D3DAE700F0BDFA06001B
:1008C00020682840ABD000F0B7FA801B6528F7D32A
:1008D000CEE70029B2D12268520502D5FA68002A73
:1008E0003ED0626815407A6912022A43626000298C
:1008F0000ED121680840396901432160A6480121D1
:1009000022689204520F914000F07AFAA3490860DD
:10091000A348006800F056FB002821D10225387852
:1009200000070AD5A06838210140182931D1206E6E
:10093000284002D0B869002812D03878400700D487
:10094000A9E000200190A06838210140202942D16F
:10095000E06D054000D19EE0B868002800D09AE024
:1009600015E1606805407069000228436060370047
:10097000D4E720688B490140216000F05DFA050052
:1009800020684005CAD500F057FA401B0328F7D36A
:100990006EE7B8690028206E0ED001210143216660
:1009A00000F04AFA0600206E2840C6D100F044FA52
:1009B000801B0328F7D35BE701218843206600F002
:1009C0003BFA0600206E2840B7D000F035FA801BB5
:1009D0000328F7D34CE7E806E16B014008D1E16B4F
:1009E0000143E163E16B0840009000980120019011
:1009F0006D4D2868C00512D4A00D0090286800999C
:100A00000143296000F018FA0600286800990140A7
:100A100005D100F011FA801B0328F6D328E7B86847
:100A20000121012805D00528E06D06D104220243EA
:100A3000E265E06D0143E16505E08843E065E06D56
:100A400004218843E0650226B86800280CD000F035
:100A5000F3F90500E06D304016D100F0EDF9401BD0
:100A6000A6498842F6D303E700F0E6F90500E06DF9
:100A7000304009D000F0E0F9401BA0498842F6D38D
:100A8000F6E600BF001002400198002803D0E06B9A
:100A90009B490140E163F86900287AD0A1683822B7
:100AA0000A40102A54D08026B604964902282068AD
:100AB00038D10140216000F0BFF9050020683040C6
:100AC00005D000F0B9F9401B0328F7D3D0E6E06861
:100AD0008D490140386A0843796A0143B86A0002C7
:100AE0000843F96A0143386B0843E06020687108E5
:100AF00001432160E068F1000143E16000F09CF9EE
:100B000005002068304044D100F096F9401B0328CE
:100B1000F7D3ADE6FFC7FFFFFF80FFFFFFFFFEFF3C
:100B2000FFFFFBFF01402160E06803218843E06094
:100B3000E0689E490140E16000F07EF90500206810
:100B4000304026D000F078F9401B0328F7D38FE619
:100B500001281CD0E0688107890F3A6A914216D1BA
:100B6000702101407A6A914211D1FE21C9010140F0
:100B7000BA6A120291420AD1F82189030140FA6A45
:100B8000914204D1400F4007396B884201D00120C7
:100B9000FEBD0020FEBD00000024F4000C0000207B
:100BA00004000020FFFEFFFF00700040F8B50700C2
:100BB00066D000917E4800684007400F884218D2F6
:100BC0007B4C20680721884300990143216000F095
:100BD00033F9009D060020684007400FA84207D067
:100BE00000F02AF9801B45498842F4D30320F2BD66
:100BF00000953968704C022001420CD0490704D599
:100C0000A168E022D2010A43A260A168694A0A40B1
:100C1000B9681143A1600725ED433978C90732D57A
:100C20007968012918D12068800329D5A068284057
:100C30000143A16000F000F93E000700A0683821E0
:100C400001407068C00081421CD000F0F5F8C01B64
:100C50002A498842F2D3C9E7022902D120688001DB
:100C600003E0002903D120684005DFD408E0032910
:100C700003D1226E1040D9D102E0E26D1040D5D1EF
:100C80000120F2BD37000098494909684907490F1A
:100C9000884217D2464800680540009828434449D6
:100CA000086000F0C9F8009D060041480068400750
:100CB000400FA84206D000F0BFF8801B0F498842C1
:100CC000F3D393E73878400705D5A0683B49014046
:100CD000F8680843A06000F019F83949A2681205C5
:100CE000120F9200895CC906C90EC84035490860D8
:100CF0003548006800F066F9F2BD00008913000075
:100D0000FFFFFFEFFFFFFFFE8C80C11F30B5072103
:100D10002F48294C3823A2681A4006D123680122A3
:100D2000DB0A19408A4011001EE04208A5681D40F8
:100D3000082D01D1100030BDA5681D40102D16D121
:100D4000E368E5682D092940491C7F259B079B0F17
:100D5000032B00D1100000F053F8E168090A0D40A0
:100D60006843E168490F491C00F04AF830BDA068AB
:100D70001840202802D18020000230BDA068034026
:100D8000182B02D1FA20C00130BD002030BD0F4821
:100D900001680C4800680F4A4904490F8900515CFA
:100DA000C906C90EC840704700000000FFFFFEEFF3
:100DB00000200240FFF0FFFF00100240FF8FFFFF06
:100DC0006C1600080C0000200400002008100240EF
:100DD0000024F40064170008CA0F00D04942031031
:100DE0005A400DD004B500D3404200F009F8009AF3
:100DF000D20701D34942124200D5404204BD00004F
:100E0000094214D088420FD30122030C01D10004FF
:100E10001204002300185B418B4200D35B1A52413D
:100E2000F8D319001000704701000020704708B582
:100E300000F0EEF808BDFEE701480068704700BF0B
:100E40000000002010B5040008001100020020007E
:100E500000F0E0F8200010BDFCB500220123009353
:100E60002CE0052703E0514FB842FAD10327A740F1
:100E700037432F604E4C2568DC4325404E68F6030F
:100E800000D51D434A4E3560756825404F68BF0345
:100E900000D51D437560474D2E6826404D68ED0214
:100EA00000D51E43434D2E606E6834404E68B60236
:100EB00002D526001C0034436C60521C0C682300D1
:100EC000D34066D0009B934001932340F5D04C68FB
:100ED000022C01D0122C10D1D408A40005192C6AC0
:100EE00097001C263E400F27B740BC430F69BC4605
:100EF00037006646BE4026432E620668540003272C
:100F0000A740FD432E400F79BF07BF0FA7403743CF
:100F100007604E68012E05D0022E03D0112E01D09D
:100F2000122E11D186682E40CF68A74037438760C4
:100F30004768019EB743BC464E683709009E3E4055
:100F4000964067463E434660C66835408E68A64078
:100F50002E43C6604C68E400AFD5174C9508AD0031
:100F600065192E68D70018243C400F27A740BE43C0
:100F7000A027FF05B84201D1002778E70F4FB842FC
:100F800001D1009F73E70E4FB84200D06BE70227F4
:100F90006DE7F3BD0069084000D00120C0B2704782
:100FA000002A01D08161704781627047000C0050B7
:100FB00080180240001802406018024000040050EF
:100FC0000008005070B5060000240F4DA9680029E4
:100FD00016D0FA208000FFF713FF01000B480068CD
:100FE000FFF70EFF00F05FF8002809D1042E07D2AA
:100FF000002231000020C04300F051F86E6000E094
:101000000124200070BD00BF000000200C00002063
:101010007047FEE71206130A1A43130C1A4300BF67
:10102000094205D0830705D00270401C491EF9D142
:10103000704700001300103906D330B414001500B7
:1010400010393CC0FCD230BC490700D30CC000D5DD
:1010500004C0890002D30280801C002900D50270E0
:101060007047FEE710B5C20018231340FF249C40D0
:10107000E2438907090E9940030004D414489B08F1
:101080009B00C01806E0134B0007000F08388008CB
:101090008000181803681A401143016010BD80B524
:1010A000FFF7E0FF01BD10B5401E802149048842D2
:1010B00001D3012010BD084C606003210020C04313
:1010C000FFF7D0FF0020A0600721216010BD0000C5
:1010D00000E400E01CED00E010E000E0F0B587B0B7
:1010E00000F02CF900206946088000F0C3F81422B3
:1010F000002101A8FFF7A6FE04218A4802680A43DE
:101100000260026811400691069920250168294372
:1011100001600168294006910699016801220A438D
:1011200002600168CA07D20F06920699022401687C
:10113000214301600068204006900698002290211B
:101140004900A020C005FFF72BFF774E0022310099
:101150007648FFF725FF20030190002002900390BE
:1011600001A97348FFF778FE019501200290002045
:101170000390049401A9A020C005FFF76DFE01961D
:101180000120029000200390049001A96748FFF716
:1011900063FEFE340194012002900020039004902D
:1011A00001A9A020C005FFF757FE624D62482860E4
:1011B000E120400268602005A8600020E860286106
:1011C0000C2068610020A861E86128626862A8625A
:1011D0002800FEF771FF0021280000F0E1F800214F
:1011E000280000F0F7F8280000F0BCF800222100E9
:1011F000A020C005FFF7D4FE002220214B48FFF7B6
:10120000CFFE002210214948FFF7CAFE0022A101AB
:101210004648FFF7C5FE6846457804788026B60143
:10122000434F02E0002800D1002531003800FFF7CD
:10123000B1FE2900F6D10128F4D131003800FFF7C2
:10124000A9FE0125002C0AD00024002000F04BF854
:10125000642000F01FF9012000F054F8E5E70124B4
:10126000002000F04FF8642000F014F9012000F095
:101270003AF8DAE738B598B03422002104A8FFF72D
:10128000E1FD102200216846FFF7DCFD1C22002151
:1012900011A8FFF7D7FD8020800000F00FF902248D
:1012A0000494E001079000250895402009900B94D4
:1012B0000C940D9509200E9020040F90400310907F
:1012C00004A8FFF78BFA072000900194029503957C
:1012D00001216846FFF76AFC1194139511A800F0EC
:1012E00013F919B030BD10B5040022008021490067
:1012F000A020C005FFF754FE220010210B48FFF785
:101300004FFE10BD38B50500084C2A0020212000F2
:10131000FFF746FE2A008021C9012000FFF740FEAA
:1013200031BD000034100240304000000004005085
:1013300000080050100000200044004010B50024B8
:1013400007480168820D0A4302600020FFF73AFE59
:10135000002801D0012401E0FFF7F8F9200010BDBA
:101360000020024030B57C21415C012901D10220DE
:1013700030BD01007C3101220A7024224A600268DB
:10138000136814680125AC43146000224266244CA3
:101390001C4000680460202048600A70002030BDB6
:1013A00070B504007C20205C012801D1022070BDB2
:1013B00026007C360120307024207060206805688B
:1013C000026801239A43026020688268D200D20832
:1013D000114318E070B504007C20205C012801D185
:1013E000022070BD26007C36012030702420706001
:1013F00020680568026801239A43026020688268B9
:10140000084B134019438160200000F00DF820685C
:101410000560202070600020307070BD000000006A
:10142000FFFFFFDFFFFFFFF1F0B585B0040003A869
:1014300014A10CC90CC001A814A10CC90CC0606E89
:10144000002802D10120012515E0206881680901EA
:10145000490F00918068410F01AE03AF785CC00076
:10146000715CFFF7B9FC05000098385CC00000997A
:10147000715CFFF7B1FC210068314D80088005B038
:10148000F0BD00000101010307010000080402048F
:101490000801010138B50500FFF7CEFC040000206B
:1014A000C043854202D0044880682D18FFF7C4FC71
:1014B000001BA842FAD331BD0000002010B50E4C2D
:1014C00021680E4A0A4002432260610D884210D111
:1014D0000B480068062148430A49FFF791FC401C6D
:1014E00000E0401E6169490503D50028F9D10320B9
:1014F00010BD002010BD000000700040FFF9FFFF8C
:101500000C00002040420F00FEB5040000206A4697
:1015100010704E4D2168890355D5019080204005FB
:10152000296B014008D1296B01432963296B0840CD
:10153000019001980120019045480068A90D0143E0
:1015400043480160FFF778FC060041480068C00589
:1015500005D4FFF771FC801B0328F6D323E0296D27
:10156000C020800008403B4F00280ED0A16988426F
:101570000BD0286D3840296D802252020A432A651B
:10158000296D354A0A402A652865C0070FD5FFF73F
:1015900053FC0600286D800709D4FFF74DFC801B23
:1015A0002E498842F6D303206946087004E0286D6E
:1015B0000740A069384328650198002803D0286BAC
:1015C0002749014029632078C00705D5A86C03216D
:1015D000884361680143A9642078800705D5A86C19
:1015E0000C218843A1680143A9642078400605D5F1
:1015F000A86C1C490140E0680843A8648020C00131
:10160000216801400DD0A96C8900890862690A43EC
:10161000AA6461690204914203D1296882000A43E5
:101620002A60216809050DD5A96C0F4A0A40216975
:101630001143A9642169814204D1286880214902AB
:101640000143296068460078FEBD00000C1002408E
:1016500000700040FFFCFFFFFFFFFEFF891300004A
:10166000FFFFFFEFFFCFFFFFFF3FFFFF0000000086
:10167000000000000000000000000000000000006A
:101680000000000000000000000000000100000059
:10169000020000000300000004000000060000003B
:1016A00007000000080000000900000070B40123DA
:1016B000002413E00168001D194202D04D4669184C
:1016C000491E0C60091D121F042AFAD20D0096074C
:1016D00001D50C80AD1C1A4000D02C700268001D92
:1016E000002AE7D170BC704730B401220EE00368D5
:1016F000C31844680830144202D04D462C19641EA9
:101700001D6825601B1D241D091FF9D10168001DDE
:101710000029ECD130BC704710B507497944183125
:10172000064C7C44163404E0081D0A688918884772
:101730000100A142F8D110BD0800000028000000FF
:101740006DFFFFFF8C000000100000200000000073
:1017500099FFFFFF10000000D400000000000020EF
:101760000000000000000000000000000000000079
:101770000000000001000000020000000300000063
:101780000400000000F00DF8002801D0FFF7C4FFAE
:1017900000BF00BF002000BF00BFFFF79FFC00F0AC
:1017A00002F80120704780B500F002F801BDFEE7A5
:1017B0000746384600F002F8FBE7FEE780B500BFB9
:1017C00000BF024A11001820ABBEFBE72600020052
:1017D0000548014603B4684680F3098800BF00BF8E
:1017E00000BF00BFFFF7CEFFA5EDF5FE0148804723
:1017F000014800471D180008D11700080248016879
:101800008268891801607047000000207047FEE779
:101810007047704780B5FFF7F1FF01BD80200005DC
:10182000014908607047000008ED00E0000000007A
:1018300004000000010000000024F400FEE7FEE7C1
:10184000FEE7FEE7FEE7FEE7FEE7FEE7FEE7FEE770
:10185000FEE7FEE7FEE7FEE7FEE7FEE7FEE7FEE760
:08186000FEE7FEE7FEE7FEE7EC
:04000005080017D107
:00000001FF
