:020000040800F2
:10000000F009002035580008695600086B560008B2
:1000100000000000000000000000000000000000E0
:100020000000000000000000000000006D56000805
:1000300000000000000000006F5600087156000824
:100040008312000800000000231400082319000890
:10005000271900082B190008AF3000087B4D000855
:1000600000000000AF53000867560008EF57000873
:10007000FB570008555800085758000800000000BA
:10008000595800085B5800085D5800085F58000880
:100090006158000863580008655800086758000850
:1000A000695800086B5800086D5800086F58000820
:1000B000B956000871580008FDB5B6B03E9801AABF
:1000C0000023002418C2069104A93B2288540F93F0
:1000D00015A8401C32900F206946C87013E0379C69
:1000E0003500369F21780698B8470690002800D141
:1000F0003DE10F98401C0F90641C6D1EF2D13697A5
:1001000037988019379037980078252809D1002032
:1001100009900A900B900C900D900E90002137984A
:100120000FE001AA0021C943379801F057F80600F3
:1001300001D10F981DE1D2D50126E1E70A00012186
:100140001143401C0278202AF8D0232A0CD02B2AF5
:1001500004D02D2A05D0302A09D00BE00A00022154
:10016000EEE70A000421EBE70A000821E8E70A00AD
:100170001021E5E72A2A0FD1389A13681A681B1D47
:10018000389C23601192002A04D5534211930A002F
:1001900004211143441C13E000221192BA4A09E0E1
:1001A000119B934205DA9D00EB185B001B19303B55
:1001B0001193401C04782300303B0A2BF0D3040039
:1001C00020782E2803D00020C043109027E0641C24
:1001D00020782A2808D1389800680268001D389BCA
:1001E00018601092641C1AE02D2802D12D22641C84
:1001F00000E0002200201090A34B0BE0150008D176
:10020000109D9D4205DAAE0075196D002818303832
:100210001090641C20780500303D0A2DEED304A810
:1002200001872578290057487844FF30593000F07D
:10023000E7FF002801D0641C00E0002504A83A2153
:100240004554405C682804D1207868280BD162208E
:1002500005E06C2807D120786C2804D1712004A90E
:100260003A228854641C20A80890207869460870B7
:10027000601C3790684602781000253834D01C384E
:1002800000D19DE1001F022800D899E10E3831D03D
:10029000401F01D100F0DFFC093800D190E1801E41
:1002A00001D100F075FD401E01D100F021FD401E7E
:1002B000022800D884E1001F01D100F019FD401F81
:1002C00000D1D3E0401E01D100F0C5FC401E79D022
:1002D000C01E27D0801E01D100F0BDFCC01E01D180
:1002E00000F0B9FC00F073FD252020A90870012062
:1002F000099034E06C2004A93A22885438980068A8
:100300000268001D38990860002A54D104A83B21D6
:10031000405C00284BD00024E4435A487844FF3026
:10032000653018E004A83A21405C6C28E6D0389883
:1003300000680468001D389908600794002C23D1D8
:1003400004A83B21405C002815D00024E4434F481A
:100350007844FF30393000F05DFF201A07D120AA21
:1003600004A9369800F042FD002800D4CBE6002016
:10037000C04339B0F0BD46487844FF30153007908F
:10038000EDE700BFDC510000109D002D03D52000DB
:1003900000F064FF09E02A000021200000F066FF61
:1003A000002801D0001B00E028000A90D7E7394A56
:1003B0007A44FF321F3A04A9369800F0A1FD0028C4
:1003C000CDD5D4E7389800680268001D38990860D8
:1003D0000020C0430021104004AA03C220A80790B7
:1003E000089B3C2404A803C8002904D1002802D19A
:1003F000109A002A16D0641E6D46ED7805403035FF
:10040000EEB23A2E08DA1D5500090A071043090911
:1004100004D1002802D105E02735F4E7079A1D1919
:10042000AA42E8D33C20001B0A90191907911099A1
:10043000884207DA081A0C9004A8018FA64A0A40DD
:1004400002878CE700298AD504A93822895C142206
:100450000A40102A83D11199099A891A0C9A891A8B
:10046000081A002800DC7AE70C9078E704A83B2102
:10047000415C002910D00024E4434F487844FF3009
:10048000393068E734510000CBCCCC0C0C51000063
:1004900024510000405100003A21405C62286BD09A
:1004A00068281CD06A2847D06C2806D0712855D0FF
:1004B000742833D07A2823D06FE038980068016818
:1004C000001D389A1060002906D10024E4433B48FF
:1004D0007844FF3017383EE70F9808603FE73898B8
:1004E00000680168001D389A1060002905D10024B9
:1004F000E44332487844C4302DE70F9808802EE753
:10050000389800680168001D389A10600029E3D10E
:100510000024E44329487844A2301CE73898006856
:100520000168001D389A10600029D5D10024E443E9
:100530002248784486300EE7389800680268001D2B
:1005400038990860002A05D10024E4431B48784408
:100550006A3000E70F98C11703C200E738980068B7
:100560000268001D38990860002AF3D10024E44392
:10057000124878444630EEE6389800680168001D5D
:10058000389A1060002905D10024E4430B487844D0
:100590002A30E0E60F980870E1E6389800680168B4
:1005A000001D389A1060002996D10024E4430348C6
:1005B00078440830CFE600BFB04F0000C44F0000C1
:1005C00038980368DB1D072083433898036003CB0A
:1005D000389C236004AB03C3C80F02D009982D21B7
:1005E0000AE004A8008F810702D509982B2103E0B7
:1005F000C00705D50998202120AB1954401C09904B
:1006000020A809994318079315AD04A8C0C86846E7
:1006100000782021014368468170612909D0109833
:10062000002801D5062003E003D1672901D101206C
:10063000109004A803C808004C006415641C12D173
:10064000090310D003200A90613A1A2A03D22349E1
:100650007944883102E02249794484310322180028
:1006600000F02AFE7BE6002C0AD1000308D103200B
:100670000A90613A1A2A19D31A4979446631EDE78A
:1006800003AA04A803C800F024FE04AA03C2684613
:100690008078612813D1079830210170811C07915F
:1006A00069460978612905D1782104E00E49794429
:1006B0003631D3E7582141700998801C099004A86D
:1006C00003C896A20CCA02400B400FD1002A0DD1DC
:1006D0000024002667E100BFEFFF0000FC4E000091
:1006E000FC4E0000004F0000F84E00006846807885
:1006F000612800D09EE01098002801D5212000E05C
:10070000401C14901498401C1F90300039000022A7
:10071000002300F0F3FD04A830C802D280200006B8
:1007200045400398001F039015A90A7015A8461CA0
:100730001F98002836DD1F9F2000290000228023FB
:100740005B0300F0F4FD2DD81C2200F009FE04002C
:100750000D0000F03DFE1F90FF1F002F09DD00F08F
:1007600071FE02000B002000290000F0D2FE040000
:100770000D00F01D07210F226B46DA701F9A002A28
:100780000BDD491E09D4401E6E46F67816400670F1
:100790001211F4E7401E00220270491EFAD5C61D50
:1007A000002FC9DC15A83299711A15AA551C149A84
:1007B0000C00914200DD1400002C34D48C4206DA87
:1007C000411C095D082902DB6946C97800E0002167
:1007D000220015AB9B1801E0641E5B1E521E1E78A2
:1007E0008E42F9D00F2904D1411C895C491C401C60
:1007F0008154002A04D515AD641C0398001D039094
:10080000611E10D46A186846007813783033DEB25F
:100810003A2E01DBC318C6331370491E521E00293D
:10082000F3D5694608701098002800D4BAE0601E1D
:100830001090B7E07F007F080398694948436949F1
:1008400000F0DEFE039007200399401A002805DD22
:1008500002003000390000F045FC0AE0424200206E
:10086000614900F03FFC02000B003000390000F04D
:10087000F6FE6A469278662A02D1039A0A3200E0AE
:100880000622109B9A18142A00DD142215AB30247E
:100890001C705C1C02E030A803C8149A002A41DDD9
:1008A00030AB03C3149230A803C800F0A3FD1F901F
:1008B00006460834042530000A2100F0B5FE0F007A
:1008C00030000A2100F0B0FE06003037601E0770CD
:1008D00030000A2100F0A8FE0F0030000A2100F0CD
:1008E000A3FE0600A41E303727706D1EE3D1083426
:1008F0001498083814900028CDDD1F9800F092FD60
:1009000002000B0030A803C800F003FE0022374BA2
:1009100000F006FF30AA03C2C5E700BFFFFFFFFFDC
:10092000FFFFFF7F3298201A15A94D1C04E0401EDE
:100930000399491E03916D1C29783029F7D0694627
:100940008978662902D10399491C06E069468978AD
:10095000652901D1012100E00021109A5418A0421C
:1009600000DA441E002C1DD4844204DA285D3428A9
:1009700001DD392100E030212200681E831801E0EA
:10098000641E5B1E521E1E788E42F9D0392902D198
:10099000A95C491CA954002A04D50500641C0398CD
:1009A000401C0390039E1495684600786946487081
:1009B00000F01EFC406A007869460870109D20B265
:1009C000002804DC0124054878441030149068465F
:1009D000807866280CD1761C23E000BF0C4C000008
:1009E00097750000A08601000000F03F84D7974172
:1009F00068468078672845D130B20321C9438842D0
:100A000046DBA84244DA761C04A83821405C000783
:100A100003D420B2A84200DC050030B22D1A00D564
:100A200000250A990798401837B2002F00DDB5E07D
:100A3000491C0A9130210170002D04DC04A83821E2
:100A4000405C000706D50A98411C0A91694609785E
:100A5000079A11547842854200DA6E4236B27042EB
:100A60000D90AD1920B2854200DA2C0024B20B940F
:100A70002200149907980A9BC01800F01DFC281B3F
:100A80000E90CFE068464078612817D170201AE0B8
:100A900020B2A84205DA04A93822895C090700D4EB
:100AA00005006D1E00D5002568464078672802D1F4
:100AB0006520694607E04520694604E068464078BD
:100AC000412801D1502048700A98411C0A9114997C
:100AD0000978079A11541498411C002D04DC04A8CD
:100AE0003822805C000719D50A98421C0A926A468F
:100AF0001278079B1A54002D10DD641E20B2854227
:100B000000DA2C0022B207980A9BC01800F0D4FB30
:100B100024B20A9800190A90281B0D9007980A9988
:100B2000401869464978017031B2002903D42B215D
:100B30004170871C03E02D224270871C4E42002426
:100B40002FAD300008E00A2100F05AFD33AA03C29D
:100B500029703398641C6D1C00B20028F3DC012C52
:100B600008DC6846407820210143652902D1302005
:100B700038707F1C002C09D1302038707F1C07E0B2
:100B8000641E2FA8005D303038707F1C002CF7DC0D
:100B900007980A994018381A0B9043E021B232B2F4
:100BA000914219DA22B2149900F086FB24B20A9815
:100BB00000190A90391B0D91002D04DC04A938227C
:100BC000895C090706D569460978079A11540B987C
:100BD000401C0B900E9525E0149900F06DFB0A98CF
:100BE000C0190A90A41B002D04DC04A93822895CDA
:100BF000090705D5411C0A9169460978079A1154DD
:100C000020B2854200DA2C0022B21498C11907984C
:100C10000A9BC01800F050FB24B20A9800190A90F1
:100C2000281B0D9004A83821405C14210140102994
:100C300001D0FFF794FB09980A9940180D994018C4
:100C40000B9940180E9940181199884201DBFFF763
:100C500086FB081A08E404AA3A20105C622808D02F
:100C600068280ED06A2814D06C281DD0712810D0A6
:100C70001AE0389801680868091D389B1960C0B2ED
:100C800018E0389801680868091D389B196080B21F
:100C900010E038980368DB1D072083433898036011
:100CA00003CB389C236006E0389801680868091D6A
:100CB000389B1960002104AB03C33820105C000787
:100CC0005BD504A803C8002901D1002855D0684687
:100CD00000782021014378294FD1099820A930229A
:100CE0000A54401C421C09926A4612780A5444E095
:100CF00004AA3A20105C622808D068280ED06A281E
:100D000014D06C281DD0712810D01AE038980168D2
:100D10000868091D389B196040B218E038980168CE
:100D20000868091D389B196000B210E03898036804
:100D3000DB1D072083433898036003CB389C236076
:100D400006E0389801680868091D389B1960C117CA
:100D500004AB03C3002902DA09982D2109E0108FA2
:100D6000810702D509982B2103E0C00705D5099812
:100D7000202120AA1154401C099020A8099940184C
:100D800007906846017804A800F01AF9FFF7E7FA1F
:100D900004A83A21405C6C280BD0012009903898B7
:100DA00000680168001D389A106020A80170FFF7E4
:100DB000D6FA389800680168001D389A10601491BE
:100DC00000201590C043109014AAFFF7F4FA2520D4
:100DD00020A908700120099068460078002801D1F8
:100DE000FFF7BDFA4A700220FFF782FAFEB506004F
:100DF0000D001700686B6969401A296A401AA969D1
:100E0000401A696A401AE969401AA96A401A0190B1
:100E10003820285C400710D42020694608700198CB
:100E200000280ADD019C01236A462900300000F0F9
:100E300081F9002860D1641EF5D13A006B69290060
:100E4000300000F077F9002856D130276846077047
:100E50002C6A002C09DD01236A462900300000F0CD
:100E600069F9002848D1641EF5D1AB69EA68290008
:100E7000300000F05FF900283ED1684607706C6AC8
:100E8000002C09DD01236A462900300000F052F9E8
:100E9000002831D1641EF5D1EB69E868A9694218D0
:100EA0002900300000F046F9002825D16846077077
:100EB000AC6A002C09DD01236A462900300000F0ED
:100EC00039F9002818D1641EF5D13820285C400774
:100ED00010D5202069460870019800280ADD019C81
:100EE00001236A462900300000F024F9002803D1CC
:100EF000641EF5D1002001E00020C04303B0F0BD26
:100F0000F0B5A7B004000D0016002F6B002F00D520
:100F1000854F00F0C7FC696B081803A90022002365
:100F20000CC1812838D2029206940095002425E055
:100F3000AF4234DB00984069401981280BD30098F8
:100F4000446307AA00990698FFF750FF0290002813
:100F500025D4009844610098406905902A0001A9B1
:100F600007A8059BC01800F0A7F90598401900993B
:100F700048613068002812D0361D7F1B002F0EDD1F
:100F800003AA316801A800F02EF9050004D43068E6
:100F90000028CDD16D1ECBD50020C0430EE0069BAE
:100FA000009C0298002804D107AA21001800FFF72E
:100FB0001DFF002802D100216161616327B0F0BDEF
:100FC000F2B586B0040025696F2901D1082707E032
:100FD000084620210143782901D00A2700E0102784
:100FE0003C2603CC083C04AA03C26A46127E642A4B
:100FF00003D06A46127E692A09D1002907DA04A8BB
:1010000003C800220023121A8B4104A80CC004A8B4
:1010100003C800290DD100280BD1206B002808D16E
:10102000082F3DD13820205C000739D53B263020E1
:1010300035E00294009504A830C8761E0196200081
:1010400029003A00FB1700F032FC3032D0B23A28C7
:101050000DDA00988255200029003A00FB1700F0B5
:1010600026FC04000D0007D1002C05D10AE06846DB
:10107000007E8218AF32ECE70298C06800998919A7
:101080008842DAD3029C009D082F09D13820205CC9
:10109000000705D5A85D302802D0761E3020A8555F
:1010A0003C20801BA061A919E160216B884206DA0F
:1010B000081A2062208F1D490140218710E0002975
:1010C0000ED53821615C14220A40102A08D1616BC8
:1010D0006269891A226A891A081A002800DD2062CA
:1010E00007B0F0BDF8B50026114F04000D000092C6
:1010F00014E0C00707D532003B002000290000F0B3
:101100000FFB04000D0000984010009030003900E3
:1011100032003B0000F004FB06000F00009800289E
:10112000E7D120002900F4BDFFFFFF7FEFFF0000A3
:1011300000002440F8B50024002B11D007000E0059
:1011400014001D002178B068B847B060002809D0AD
:10115000F06A401CF0620020641C6D1EF2D1040095
:101160002000F2BD0020C043F9E70268531C036071
:10117000117070472048704730B45368D41803E0AA
:101180005B1C491E641C401C042B06DA002904D099
:10119000057825700578002DF2D1536030BC70477A
:1011A00038B500290ED01D001400FFF7E5FF616877
:1011B00020006A6B90470122D243811A02D0491E57
:1011C00002D004E0012000E00020C04332BD002135
:1011D000616032BD80B5DA6B904702BD80B5064BC9
:1011E000FFF7DEFF02BD80B5034BFFF7F3FF02BD43
:1011F00002487047000000008C01002054010020CC
:10120000C9B202788A4203D0401C002AF9D10020DA
:1012100070472E0080B5002801D100BF07A0064905
:101220000B68002B03D022220021984701E000F038
:1012300073FB222002BD0000E8050020636F6E737F
:10124000747261696E742068616E646C65723A20B4
:10125000626164206D65737361676500431C01788A
:10126000401C0942FBD1C01A70474300C9B2521E4C
:1012700005D30378401C8B42F9D1401E70470020F3
:101280007047FEE770B4103A03D378C9103A78C0BB
:10129000FBD2530701D318C918C001D508C908C02B
:1012A000D20704D30B880380891C801C002A01D537
:1012B0000B78037070BC70478B0701D18307E1D0B6
:1012C000124205D00B78491C0370401C521EF9D104
:1012D000704710B5144600F002F8226010BD4A00B5
:1012E00053155B1C08D0520D06D003231B02FE3A97
:1012F000D21A1305C91A70470022704730B401246E
:1013000064054D00EC420BD85D00EC4208D80C009F
:101310001C4364000443144304D2994200D1904218
:1013200030BC7047FCD08B42FAD18242F8E730B42F
:10133000012464054D00EC420BD85D00EC4208D856
:101340000C001C4364000443144304D28B4200D1BC
:10135000824230BC7047FCD09942FAD19042F8E703
:10136000124217D40023DB435B0D9C464B005B0D00
:1013700006D0634504D09B18634502D21205891834
:1013800070476246090D11430905002000B500BFF2
:1013900000BF00BD52424B005B0DF1D05B1C5B05F2
:1013A000EED25B0D934102D91205891A70470BD119
:1013B0000B031B13C90FC907821C002043411343B1
:1013C000E4D912051143E1E7C90FC9070020DDE7A1
:1013D000F4464A1805D200F00FF801D580174008EE
:1013E000604700F009F80121C907884200D90800C8
:1013F000404260474A1812D2400DC90208430121F9
:10140000C9070843520D40210901521A521C06D443
:1014100052421F3201D4D0407047C017704700209D
:101420007047FEE7010042221201D21E004207D09F
:1014300002D4521E0018FCD5C10A400512058918B5
:10144000704700000100EED54042F446FFF7EBFF85
:101450000122D207114360478B4200D1824205D955
:101460008446100062468C4619006346DF184C180B
:10147000640D7F0D3AD0661C760537D0E61B352EFD
:1014800034DCDB022B43DB0A0C0DC9022943C912F1
:10149000202E0DDB1700203E06D01F00F741F34041
:1014A0005F400026012A7741C01871410DD217E034
:1014B0001700F741F2405740F3415A40B340F34020
:1014C0005A400026801859410AD3A21C52050FD059
:1014D000C207012F724117004008CB071843490883
:1014E000641C24054208AF4170416141F0BC704763
:1014F000641C21050020F9E76B4010E06B40ABE76E
:10150000F742F3D1E943F1E72442EFD10020002173
:10151000ECE7F0B40125ED070F005F40EED40C00BE
:10152000871A9C4105D2C01BA141D2196341694071
:101530006B40AE0ADF184C18F442E1D2640D7F0D07
:10154000E2D0E61B362ED1DCDB022B43DB0AA446BD
:101550000C0DC9022943C90A012E28DC04D1D60783
:101560005208DF073A435B08EF0A764290419941FF
:1015700014D039423BD1B61940414941761C394219
:1015800004D1761C001849413942FAD0B943674664
:10159000B74208D9A41B24052143A7E70042EAD19A
:1015A0003642E8D1A2E7E40AE10700209EE7202EB8
:1015B0000BDD203E1F00F340F7415F40012A00226F
:1015C00057417E42984191410BE01700F741F240AC
:1015D0005740F3415A40B340F3405A407E42904155
:1015E00099410A0303D2641EB619404149410027BC
:1015F000641E24054208AE4178416141F0BC704749
:10160000CA0F00D0494203105A400DD004B500D390
:10161000404200F009F8009AD20701D34942124231
:1016200000D5404204BD0000094214D088420FD3C7
:101630000122030C01D100041204002300185B41B5
:101640008B4200D35B1A5241F8D319001000704747
:1016500001000020704708B500F064F908BDF0B43F
:101660000E005E400125ED072E40B446AE0ADF189D
:101670004C18F4423BD2F74241D2640D43D07F0D67
:1016800038D0E41BC902DB0229432B43CF0ADB0A13
:101690000600B61A9F4104D2641EB6197F41B618DF
:1016A0005F416812800D24180018844222DAE80C89
:1016B0000021B6197F41B61A9F4102D2B6185F4188
:1016C0003F1C40414941F4D3241C21DD2405B619B7
:1016D0007F41B61A9F4105D33743C60737430026DB
:1016E000012F7041614166463143F0BC7047FCD127
:1016F000F74205D20020C14349054908F3E704D069
:101700000020C143F1E77F0DFAD000206146ECE7ED
:101710002442FAD1401C61410F03F6D30020E2E7D6
:10172000F0B50E005E400125ED072E40B446AE0A2E
:10173000DF184C18F44208D2F7420ED2640D01D0E3
:101740007F0D12D100206146F0BD05D1F74201D8CE
:101750007F0D05D10020C143F0BDFBD1640DF9D050
:101760000020C143490549088FE0E419C902DB02A2
:1017700029432B43DB0A460DC00231438E4630B469
:1017800087B295B27D432E0CADB2140C7C43A419E4
:10179000260C240425439CB27C43A419190C7943DC
:1017A000270CC919A4B20F043C43090C000C97B2D2
:1017B00047432E0CBE193543ADB2170C4743360CC8
:1017C000BF19A6B2BF193E043543240C3E0C36198E
:1017D0009FB24743BF19BCB23E0C89191F0C474347
:1017E0007F183E043443390C704680B297B24743A9
:1017F0002E0CBE193543ADB2170C4743360CBF193A
:10180000A6B2BF193E043543240C3E0C36199FB2D4
:101810004743BF19BCB23E0C89191F0C47437F18C0
:101820003E043443390C77463F0C90B278432E0C7B
:1018300080190604ADB22E43050CA0B22D18120C6F
:101840007A435019020C80B2240CA4189AB27A433D
:10185000121914042043120C89181B0C7B43C9185D
:1018600030BCEF0A394203D1B61940414941641EE8
:101870006F12BF0DE41B0BDBFF19BC4211DA24050C
:1018800000274208AE417841614166463143F0BDD0
:10189000641C05D1401C6141CF0201D34908F4E723
:1018A00050E75DE780B5FFF765FC006C02BD1242B2
:1018B00024D0994228D970B500251B4202D00C00D3
:1018C000002109E00024012649186441944200D314
:1018D000A41A7641F8D33100012601E0764109D2FD
:1018E000001864416D41A41A9D41F7D2A4185D41CE
:1018F000B619F5D3300022002B0070BD1B42D8D1A1
:1019000008B500F011F808BD01D19042D3D2020011
:101910000B0000210020704780B5012000F006F880
:1019200001BDFEE77047FEE77047FEE780B500BFE8
:1019300000BF024A11001820ABBEFBE726000200E0
:101940000000000000000000000000000000000097
:101950000000000000000000000000000000000087
:10196000000000000000000C000C000C000C000C3B
:10197000000C000C000C000C000C000C0000000C13
:10198000000C0000000000000000001B001B001BFA
:10199000001B001B00000000000000000000000011
:1019A000000000000000000000000000000080199E
:1019B000801980198019C07FC07F80190033C07FD3
:1019C000C07F00330033003300330000000000000C
:1019D0000000001E003F807580650074003C001E02
:1019E00000078005806580658075003F001E00044B
:1019F000000400000000007000D840D8C0D880D992
:101A000000730006000C801BC036C066C046C006CE
:101A100080030000000000000000001E003F0033B3
:101A200000330033001E000CC03CC0668063806140
:101A30008063C03E801C0000000000000000000C1D
:101A4000000C000C000C000C000000000000000066
:101A50000000000000000000000000000000000086
:101A6000800000010003000600060004000C000CCA
:101A7000000C000C000C000C000400060006000323
:101A800000018000002000100018000C000C000471
:101A90000006000600060006000600060004000C12
:101AA000000C0018001000200000000C002D003F6A
:101AB000001E0033000000000000000000000000D5
:101AC0000000000000000000000000000000000016
:101AD0000000000C000C000C000CC0FFC0FF000C4C
:101AE000000C000C000C00000000000000000000D2
:101AF00000000000000000000000000000000000E6
:101B000000000000000000000000000C000C0004B9
:101B100000040008000000000000000000000000B9
:101B2000000000000000001E001E00000000000079
:101B300000000000000000000000000000000000A5
:101B40000000000000000000000000000000000095
:101B50000000000C000C000000000000000000036A
:101B6000000300030006000600060006000C000C3F
:101B7000000C000C00180018001800000000000005
:101B80000000001E003F0033806180618061806D35
:101B9000806D8061806180610033003F001E000025
:101BA0000000000000000006000E001E00360026A7
:101BB00000060006000600060006000600060006F5
:101BC00000060000000000000000001E003F8073BF
:101BD00080618061800100030006000C0018003065
:101BE0000060807F807F0000000000000000001C7B
:101BF000003E006300630003000E000E000380013E
:101C0000800180618073003F001E00000000000022
:101C100000000006000E000E001E001E001600361A
:101C200000360066807F807F000600060006000008
:101C3000000000000000007F007F00600060006086
:101C4000006E007F80638001800180618073003FAF
:101C5000001E0000000000000000001E003F803356
:101C600080610060006E007F8073806180618061B0
:101C70008033003F001E0000000000000000807F55
:101C8000807F80010003000300060006000C000CAA
:101C9000000C0008001800180018000000000000E8
:101CA0000000001E003F8063806180610021001EF3
:101CB000003F8061806180618061003F001E000004
:101CC000000000000000001E003F00738061806182
:101CD00080618073803F801D800180610073003FC0
:101CE000001E0000000000000000000000000000D6
:101CF0000000000C000C00000000000000000000CC
:101D00000000000C000C00000000000000000000BB
:101D10000000000000000000000C000C00000000AB
:101D2000000000000000000C000C0004000400088B
:101D3000000000000000000080008003000E00385A
:101D400000600038000E80038000000000000000EA
:101D50000000000000000000000000000000807F84
:101D6000807F00000000807F807F00000000000076
:101D70000000000000000000000000000000000063
:101D800000400070001C000780010007001C00706C
:101D90000040000000000000000000000000001FE4
:101DA000803FC071C060C000C00180030007000E0A
:101DB000000C000C0000000C000C000000000000F3
:101DC0000000001E003F803180718063806F806D55
:101DD000806D806F806700600032003E001C000054
:101DE000000000000000000E000E001B001B001B86
:101DF000001B80318031803F803F8031C060C060F7
:101E0000C0600000000000000000007C007E006355
:101E1000006300630063007E007E00638061806178
:101E20008063007F007E0000000000000000001EB4
:101E3000003F8031806100600060006000600060F1
:101E4000006080618031003F001E00000000000043
:101E50000000007C007F006380638061806180619E
:101E600080618061806100630063007E007C00000F
:101E7000000000000000807F807F00600060006044
:101E80000060007F007F0060006000600060807F75
:101E9000807F0000000000000000807F807F0060E5
:101EA000006000600060007F007F006000600060F4
:101EB0000060006000600000000000000000001EE4
:101EC000003F80318061006000600060806380635B
:101ED000806180618031803F001E000000000000B2
:101EE0000000806180618061806180618061807FAD
:101EF000807F80618061806180618061806100009D
:101F0000000000000000003F003F000C000C000C2F
:101F1000000C000C000C000C000C000C000C003F2E
:101F2000003F0000000000000000800180018001EF
:101F300080018001800180018001800180618061D9
:101F40008073003F001E0000000000000000C06021
:101F50008061006300660066006C0078007C0066AB
:101F60000066006380618061C060000000000000C6
:101F700000000060006000600060006000600060C1
:101F800000600060006000600060807F807F000073
:101F9000000000000000C071C071C07BC07AC06A40
:101FA000C06AC06EC064C060C060C060C060C06015
:101FB000C060000000000000000080718071807926
:101FC00080798079806D806D806D806580678067A5
:101FD0008067806380630000000000000000001E36
:101FE000003F003380618061806180618061806139
:101FF000806180610033003F001E0000000000008F
:102000000000007E007F806380618061806180636A
:10201000007F007E006000600060006000600000E3
:10202000000000000000001E003F0033806180615E
:102030008061806180618061806580670033803F5E
:10204000401E0000000000000000007E007F806352
:10205000806180618063007F007E006600630063B2
:1020600080618061C0600000000000000000000E80
:10207000001F8031803100300038001E00078003CF
:10208000806180618031003F001E00000000000080
:102090000000C0FFC0FF000C000C000C000C000C86
:1020A000000C000C000C000C000C000C000C0000DC
:1020B00000000000000080618061806180618061BB
:1020C0008061806180618061806180618073003F98
:1020D000001E0000000000000000C060C060C06082
:1020E000803180318031001B001B001B001B000E63
:1020F000000E000E00040000000000000000C0C040
:10210000C0C0C0C0C0C0C0C0C0CC804C804C805ECD
:102110008052805280738061806100000000000066
:102120000000C0C0806080610033003B001E000CD6
:10213000000C001E001F003B80718061C0C00000C9
:10214000000000000000C0C08061806100330033E7
:10215000001E001E000C000C000C000C000C000CFB
:10216000000C0000000000000000803F803F800164
:10217000000300030006000C000C001800180030DB
:102180000060807F807F000000000000000F000FD3
:10219000000C000C000C000C000C000C000C000CDF
:1021A000000C000C000C000C000C000C000F000FC9
:1021B0000000001800180018000C000C000C000CA7
:1021C00000060006000600060003000300030000EE
:1021D00000000000001E001E0006000600060006AB
:1021E00000060006000600060006000600060006BF
:1021F00000060006001E001E0000000C000C001E61
:102200000012003300338061806100000000000094
:1022100000000000000000000000000000000000BE
:1022200000000000000000000000000000000000AE
:10223000000000000000000000000000E0FF0000BF
:10224000000000380018000C000000000000000032
:10225000000000000000000000000000000000007E
:102260000000000000000000000000000000001F4F
:10227000803F80618001801F803F80618063807F1C
:10228000C038000000000000000000600060006036
:102290000060006E007F807380618061806180617A
:1022A0008073007F006E000000000000000000004E
:1022B000000000000000001E003F8073806100608D
:1022C000006080618073003F001E0000000000007D
:1022D00000008001800180018001801D803F8073AB
:1022E00080618061806180618073803F801D00001B
:1022F0000000000000000000000000000000001EC0
:10230000003F00738061807F807F00608071003FAC
:10231000001E0000000000000000C007C00F000CFD
:10232000000C807F807F000C000C000C000C000C67
:10233000000C000C000C0000000000000000000079
:1023400000000000801D803F80738061806180619B
:1023500080618073803F801D80018063007F003E2C
:1023600000000060006000600060006F807F80718E
:102370008061806180618061806180618061000036
:102380000000000000000006000600000000003E03
:10239000003E0006000600060006000600060006D5
:1023A000000600000000000000060006000000001B
:1023B000003E003E0006000600060006000600067D
:1023C0000006000600060046007E003C000000609B
:1023D000006000600060806100630066006C007C4B
:1023E0000076006300638061C060000000000000B0
:1023F0000000003E003E0006000600060006000643
:1024000000060006000600060006000600060000A2
:10241000000000000000000000000000000080DD5F
:10242000C0FFC0CEC0CCC0CCC0CCC0CCC0CCC0CC17
:10243000C0CC000000000000000000000000000010
:102440000000006F807F80718061806180618061A9
:1024500080618061806100000000000000000000D9
:10246000000000000000001E003F8073806180615A
:10247000806180618073003F001E0000000000004A
:102480000000000000000000006E007F807380618B
:102490008061806180618073007F006E00600060F9
:1024A000006000600000000000000000801D803F10
:1024B000807380618061806180618073803F801D56
:1024C0008001800180018001000000000000000008
:1024D00000000067803F00390030003000300030DD
:1024E000003000300030000000000000000000005C
:1024F000000000000000001E803F80610060007F3F
:10250000803F80018061007F001E0000000000000D
:1025100000000000000800180018007F007F00186D
:1025200000180018001800180018801F800F000005
:1025300000000000000000000000000000008061BA
:102540008061806180618061806180618063807F63
:10255000803D0000000000000000000000000000BE
:102560000000C060803180318031001B001B001BE7
:10257000000E000E00060000000000000000000039
:1025800000000000000080DD80DD80DD005500558A
:1025900000550077007700220022000000000000B4
:1025A00000000000000000000000806100330033E4
:1025B000001E000C000C001E003300338061000080
:1025C0000000000000000000000000008061806149
:1025D000803100330033001B001B001B000E000E77
:1025E000000E001C007C00700000000000000000D5
:1025F0000000C07FC07F800100030006000C0018AF
:102600000030C07FC07F0000000000008003800712
:1026100000060006000600060006000E001C001C56
:10262000000E000600060006000600068007800374
:10263000000600060006000600060006000600066A
:10264000000600060006000600060006000600065A
:10265000000600060038003C000C000C000C000CCA
:10266000000C000E00070007000E000C000C000C10
:10267000000C000C003C00380000000000000000CE
:102680000000000000008038807F0047000000004C
:1026900000000000000000000000000038B5040049
:1026A00014D025007C356868002803D128702000EC
:1026B00000F073FC242068602068016801229143C7
:1026C0000160200000F0F0F8012801D1012032BDA6
:1026D000A06A002802D0200000F010FB20684168AA
:1026E000084A0A404260206881682A22914381603A
:1026F000FFE72068016801220A430260200000F021
:1027000067FB32BDFFB7FFFFFEB504002368D86941
:102710001E689968202232400092202202400192D5
:102720004025AA0507070DD1019F002F03D0009F68
:10273000002F01D10A407AD0E16E002901D020009B
:102740008847F7BD571C0F4003D190277F003740C3
:102750006DD0C70708D5F60506D501261E62882369
:10276000E3581E438823E6500223184209D0CE07BF
:1027700007D5266833628826A75904263E43882752
:10278000E6510426304208D0CF0706D527683E62BE
:102790008826A65933438826A35127008837082660
:1027A00030400AD00098002802D1501C084004D0C4
:1027B000206806623868304338603868002870D076
:1027C0000198002809D00098002801D10A4004D0BF
:1027D000E16E002901D020008847386821688968A7
:1027E000294001D106401CD0200000F054FB206895
:1027F00081680D4011D08168402291438160A06FB3
:1028000000280AD027498163A06F00F005FC00284A
:1028100047D0A06F816B8847F7BD200000F042FCD5
:10282000F7BD200000F03EFC00203860F7BDAA0391
:10283000104206D04F0204D51A62200000F033FC8B
:10284000F7BD80221304104209D0324001D1194053
:1028500005D0216F002924D020008847F7BD2842E9
:1028600010D035400ED02068006840218843216890
:10287000086020208021605000202067200000F0A8
:1028800013FCF7BD034005D0710003D5200000F014
:102890000CFCF7BDC00104D5002E02D5200000F0CD
:1028A00005FCF7BDED2E000851B582B000206A4648
:1028B0001070029909680A689B4B1340029A92684B
:1028C0001A43029B1B691343029A52691A43029BE3
:1028D000DB691343029A526E1A430A604A68994BA5
:1028E0001340029AD2681A434A608A68964B134092
:1028F000029A92691A43029B1B6A13438B60CA6A4D
:102900000F239A43029B5B6A1343CB62934A944B17
:10291000994208D111688907890F21D0022910D066
:1029200011D303290BE0934B994210D111680C226B
:102930000A4012D0042A06D0082A02D00C2A04D059
:102940000DE002210CE004210AE0082108E0904A91
:10295000914202D08F4A914201D1002100E0102122
:10296000019180267600B20153000299C96999420B
:10297000019900D0C2E0002906D0022907D004291D
:102980003BD0082975D0ABE000F06BFE37E0029831
:10299000406A00282BD0012801D1824828E0022873
:1029A00001D1814824E0032801D1804820E0042897
:1029B00001D17F481CE0052801D17E4818E0062897
:1029C00001D17D4814E0072801D17C4810E0082897
:1029D00001D17B480CE0092801D17A4808E00A2897
:1029E00001D1794804E00B2801D1784800E078480B
:1029F000029949684A0880186EE000F0F1FD0299DA
:102A0000496A00292BD0012901D1022128E002299D
:102A100001D1042124E0032901D1062120E0042969
:102A200001D108211CE0052901D10A2118E006295D
:102A300001D10C2114E0072901D1102110E008294F
:102A400001D120210CE0092901D1402108E00A2907
:102A500001D1802104E00B2901D1310000E00121E6
:102A6000029A5468FEF7E0FD40006108401821001A
:102A700032E00298406A002829D0012828D0022894
:102A800001D1130024E0032801D1984B20E0042851
:102A900001D153081CE0052801D1954B18E0062808
:102AA00001D1944B14E0072801D1930810E00828C5
:102AB00001D1D3080CE0092801D1130908E00A2844
:102AC00001D1530904E00B2801D1330000E0930049
:102AD0000298416848081818FEF7A6FD80B202E087
:102AE00001216A46117001001039834A914200D3D6
:102AF000EEE002400007400F1043E5E0002907D058
:102B0000022908D0042965D0082900D19DE0D3E02E
:102B100000F0A7FD60E00298406A00283CD0012840
:102B200004D1214839E000BFF369FFCF022801D169
:102B30001F4832E0032801D11F482EE0042805D1A8
:102B40001E482AE0FFCFFFFFFFF4FF11052801D147
:102B50009C4822E0062805D19B481EE05410024004
:102B600000380140072801D1154816E0082803D194
:102B7000144812E000440040092801D112480CE03A
:102B80000A2801D1114808E00B2805D18F4804E03C
:102B900000480040004C00400248029949684A0839
:102BA000801885E00024F40000127A00546151007E
:102BB00000093D0000D43000AAB0280080841E0027
:102BC00040420F0020A1070090D0030048E8010018
:102BD0000048E80100F004FD0299496A00292BD061
:102BE000012901D1022128E0022901D1042124E098
:102BF000032901D1062120E0042901D108211CE08C
:102C0000052901D10A2118E0062901D10C2114E07F
:102C1000072901D1102110E0082901D120210CE061
:102C2000092901D1402108E00A2901D1802104E0CD
:102C30000B2901D1310000E00121029A5468FEF70E
:102C4000F3FC61084018210032E00298406A002835
:102C500029D0012828D0022801D1520824E00328D5
:102C600001D1954A20E0042801D192081CE00528F2
:102C700001D1924A18E0062801D1914A14E00728B0
:102C800001D1D20810E0082801D112090CE009286E
:102C900001D1520908E00A2801D1320004E00B28D2
:102CA00001D1802200E01A000298416848081018FB
:102CB000FEF7BAFC80B202E001216A461170010001
:102CC00010390D4A914203D202990968C86002E0A6
:102CD0000120694608700298683001214180018016
:102CE000002141608160684600785EBDAA2A00002C
:102CF0009819000054150000F0FF00002821415CE5
:102D0000C90706D501684A686E4B1340C26A1A4368
:102D10004A602821415C890706D501684A686A4BE8
:102D20001340026B1A434A602821415C490706D5CB
:102D300001684A68654B1340426B1A434A60282178
:102D4000415C090706D501684A68614B1340826BF4
:102D50001A434A602821415CC90606D501688A6881
:102D60005C4B1340C26B1A438A602821415C890680
:102D700006D501688A68584B1340026C1A438A6072
:102D80002821415C490611D501684A68534B13401C
:102D9000426C1A434A60426C80235B039A4205D11D
:102DA0004A684F4B1340826C1A434A602821415CA9
:102DB000090606D501684A684A4B1340C06C18439F
:102DC00048607047006A18005558140024F4000049
:102DD000F8B5040000257C30C56000F067FC0700F2
:102DE000414E20680068000709D500963B0000228C
:102DF00080218903200000F01AF800280DD12068F6
:102E0000006840070BD500963B0000228021C903D3
:102E1000200000F00CF8002801D00320F2BD2100B2
:102E20007C312020486088600D700020F2BDFEB526
:102E3000089E002405000F00684602700193286870
:102E4000C0693840B84201D1012000E00020694645
:102E5000097888421DD10020C0438642EFD000F09F
:102E600025FC0199401A864201D3002EE7D128683B
:102E70000168234A0A400260286881680122914360
:102E8000816028007C302021416081600470032033
:102E9000FEBD0020FEBD01680A681A4B13400B609E
:102EA00001688A68184B13408B602021842281506E
:102EB0000021C1667047000055150000CC0C0000D1
:102EC000AA0A0000FFFFFDFFFFFFFEFFFFFFFBFF61
:102ED000FF7FFFFFFFEFFFFFFFDFFFFFFFFFEFFFC2
:102EE000FFFF9FFFFFFFF7FFFFFFFF0180B5806A35
:102EF0000100563100220A810A8000F0D3F801BD9A
:102F00005FFEFFFFDFFEFFFFFEFFFFEF80B53D48E6
:102F1000012142680A4342604268114000910099D1
:102F20008021490502680A4302600068014000915F
:102F30000098C020C00000F0D1FB01BD10B586B0E4
:102F400004001422002101A800F0D6FB20682E49BD
:102F5000884220D102202D4C216801432160216844
:102F6000084000900098C02080000190122002903C
:102F700001200390002004900620059001A9244818
:102F800000F0C4FB80208003A1680143A160A16818
:102F900008400090009806B010BD10B586B004003F
:102FA0001422002101A800F0A7FB206819498842DB
:102FB00026D11649802080028A6802438A608A6886
:102FC00010400090009801200A6802430A600968D6
:102FD0000140009100990C2101910221029103907E
:102FE00000210491059001A9A020C00500F08EFBEE
:102FF000002200211C2000F05CFC1C2000F05DFC85
:1030000006B010BD3C100240005400403410024095
:103010000004005000440040F8B50021002424239F
:10302000C1540126C6542522825C022A03D0042101
:10303000C16301242EE0026813680E25AB431360C0
:1030400002681368B3431360436C154A1D6815404A
:103050001D60124B1D68AC464025475D1C253D4058
:103060000127AF4065462F431F60C36C856C6B60C2
:10307000036D002B06D01B681A40036D1A60826D29
:10308000436D5A602522865424228154816B002985
:1030900000D088472000F2BD00000000040002407C
:1030A000FFFEFFFF70477047704770477047FEE7AD
:1030B000FEB507001BD0A84C3878C00719D5A16809
:1030C00038200840E1688025AD02102808D1880723
:1030D000800F032806D079686808814234D13BE02C
:1030E0000828F8D12068054003D07868002800D16E
:1030F000B7E1387880077BD5A06838210140E268C5
:10310000B948BA4D10294ED19207920F022A4CD0DD
:10311000F968002900D196E0216808403969014327
:1031200021602068A10D0143216000F0BFFA3E003C
:1031300007002068400500D57DE000F0B7FAC01B0D
:103140000328F6D30320FEBDA022D202914207D16C
:10315000216882000A43226021680843206007E05A
:103160002068A349014021602068A24901402160F4
:10317000786800280BD000F099FA060020682840F3
:10318000B7D100F093FA801B6528F7D3DAE700F097
:103190008DFA060020682840ABD000F087FA801B2B
:1031A0006528F7D3CEE70029B2D12268520502D5AF
:1031B000FA68002A3ED0626815407A6912022A43F2
:1031C000626000290ED121680840396901432160FD
:1031D000A648012122689204520F9140FEF724FA7A
:1031E000A3490860A348006800F08CFB002821D1A7
:1031F0000225387800070AD5A0683821014018292F
:1032000031D1206E284002D0B869002812D0387819
:10321000400700D4A9E000200190A06838210140B7
:10322000202942D1E06D054000D19EE0B868002819
:1032300000D09AE015E160680540706900022843FB
:1032400060603700D4E720688B490140216000F0BE
:103250002DFA050020684005CAD500F027FA401B6A
:103260000328F7D36EE7B8690028206E0ED001213D
:103270000143216600F01AFA0600206E2840C6D1EC
:1032800000F014FA801B0328F7D35BE70121884381
:10329000206600F00BFA0600206E2840B7D000F040
:1032A00005FA801B0328F7D34CE7E806E16B0140E1
:1032B00008D1E16B0143E163E16B084000900098A5
:1032C000012001906D4D2868C00512D4A00D00901A
:1032D000286800990143296000F0E8F90600286891
:1032E0000099014005D100F0E1F9801B0328F6D3D5
:1032F00028E7B8680121012805D00528E06D06D12E
:1033000004220243E265E06D0143E16505E0884384
:10331000E065E06D04218843E0650226B868002876
:103320000CD000F0C3F90500E06D304016D100F07C
:10333000BDF9401BA6498842F6D303E700F0B6F971
:103340000500E06D304009D000F0B0F9401BA04905
:103350008842F6D3F6E600BF00100240019800282C
:1033600003D0E06B9B490140E163F86900287AD003
:10337000A16838220A40102A54D08026B604964903
:103380000228206838D10140216000F08FF9050043
:103390002068304005D000F089F9401B0328F7D39E
:1033A000D0E6E0688D490140386A0843796A0143F4
:1033B000B86A00020843F96A0143386B0843E060C9
:1033C0002068710801432160E068F1000143E16079
:1033D00000F06CF905002068304044D100F066F937
:1033E000401B0328F7D3ADE6FFC7FFFFFF80FFFFB9
:1033F000FFFFFEFFFFFFFBFF01402160E0680321AC
:103400008843E060E0689E490140E16000F04EF9C9
:1034100005002068304026D000F048F9401B032802
:10342000F7D38FE601281CD0E0688107890F3A6A3C
:10343000914216D1702101407A6A914211D1FE2148
:10344000C9010140BA6A120291420AD1F8218903E6
:103450000140FA6A914204D1400F4007396B88421B
:1034600001D00120FEBD0020FEBD00000024F400BC
:10347000F8000020F0000020FFFEFFFF0070004079
:10348000F8B5070066D000917E4800684007400FFD
:10349000884218D27B4C2068072188430099014359
:1034A000216000F003F9009D060020684007400FEE
:1034B000A84207D000F0FAF8801B45498842F4D3AF
:1034C0000320F2BD00953968704C022001420CD0F7
:1034D000490704D5A168E022D2010A43A260A1688D
:1034E000694A0A40B9681143A1600725ED4339785C
:1034F000C90732D57968012918D12068800329D5F8
:10350000A06828400143A16000F0D0F83E00070009
:10351000A068382101407068C00081421CD000F0D2
:10352000C5F8C01B2A498842F2D3C9E7022902D153
:103530002068800103E0002903D120684005DFD422
:1035400008E0032903D1226E1040D9D102E0E26DD8
:103550001040D5D10120F2BD3700009849490968D3
:103560004907490F884217D246480068054000982D
:1035700028434449086000F099F8009D060041483E
:1035800000684007400FA84206D000F08FF8801B6B
:103590000F498842F3D393E73878400705D5A068F0
:1035A0003B490140F8680843A06000F019F8394928
:1035B000A2681205120F9200895CC906C90EC840A4
:1035C000354908603548006800F09CF9F2BD0000FC
:1035D00089130000FFFFFFEFFFFFFFFE8C80C11F7C
:1035E00030B507212F48294C3823A2681A4006D14C
:1035F00023680122DB0A19408A4011001EE04208BC
:10360000A5681D40082D01D1100030BDA5681D40E2
:10361000102D16D1E368E5682D092940491C7F2546
:103620009B079B0F032B00D11000FDF7FDFFE16806
:10363000090A0D406843E168490F491CFDF7F4FF92
:1036400030BDA0681840202802D18020000230BD83
:10365000A0680340182B02D1FA20C00130BD002021
:1036600030BD0F4801680C4800680F4A4904490FF3
:103670008900515CC906C90EC840704700000000AF
:10368000FFFFFEEF00200240FFF0FFFF00100240AE
:10369000FF8FFFFFE0560008F8000020F000002038
:1036A000081002400024F400A457000801480068F4
:1036B000704700BFEC00002010B500240B480168E3
:1036C000820D0A430260002000F01CF9002801D09E
:1036D000012401E0FFF71AFC200010BD04490A682C
:1036E000044B13401843086070470000002002405C
:1036F00000000140FFF9FFFF10B5040008001100B1
:103700000200200000F026F9200010BDFCB50022C8
:10371000012300932CE0052703E0514FB842FAD172
:103720000327A74037432F604E4C2568DC432540D4
:103730004E68F60300D51D434A4E35607568254036
:103740004F68BF0300D51D437560474D2E68264066
:103750004D68ED0200D51E43434D2E606E68344027
:103760004E68B60202D526001C0034436C60521C21
:103770000C682300D34066D0009B93400193234004
:10378000F5D04C68022C01D0122C10D1D408A40022
:1037900005192C6A97001C263E400F27B740BC43F2
:1037A0000F69BC4637006646BE4026432E62066857
:1037B00054000327A740FD432E400F79BF07BF0FDA
:1037C000A740374307604E68012E05D0022E03D074
:1037D000112E01D0122E11D186682E40CF68A7403D
:1037E000374387604768019EB743BC464E68370938
:1037F000009E3E40964067463E434660C668354060
:103800008E68A6402E43C6604C68E400AFD5174CC6
:103810009508AD0065192E68D70018243C400F2785
:10382000A740BE43A027FF05B84201D1002778E793
:103830000F4FB84201D1009F73E70E4FB84200D03E
:103840006BE702276DE7F3BD0069084000D0012057
:10385000C0B27047002A01D0816170478162704711
:10386000000C00508018024000180240601802400E
:10387000000400500008005010B5C2001823134087
:10388000FF249C40E2438907090E9940030004D4B9
:1038900018489B089B00C01806E0174B0007000F54
:1038A000083880088000181803681A401143016026
:1038B00010BD80B5FFF7E0FF01BD010005D4012177
:1038C000C006C00E81400D480160704710B5401E13
:1038D00080214904884201D3012010BD084C60605A
:1038E00003210020C043FFF7C7FF0020A06007218D
:1038F000216010BD00E400E01CED00E000E100E00C
:1039000010E000E070B5060000240F4DA968002902
:1039100016D0FA208000FDF787FE01000B480068F2
:10392000FDF782FEFFF7D2FF002809D1042E07D24F
:10393000002231000020C043FFF7BBFF6E6000E0B3
:103940000124200070BD00BFEC000020F800002022
:10395000002200BF094202D0491E4254FCD17047E8
:103960000000000000000000000000000000000057
:1039700000000000001000100010001000100010E7
:1039800000000010000000000028002800280000AF
:1039900000000000000000000000000000240024DF
:1039A000007C00240048007C004800480000000023
:1039B00000380054005000380014005400540038FF
:1039C000001000000020005400580030002800546F
:1039D000001400080000000000100028002800105B
:1039E00000340048004800340000000000100010BF
:1039F00000100000000000000000000000000000B7
:103A000000080010002000200020002000200020DE
:103A1000001000080020001000080008000800083E
:103A200000080008001000200010003800100028D6
:103A30000000000000000000000000000000000086
:103A400000100010007C00100010000000000000BA
:103A50000000000000000000000000000000001056
:103A600000100010000000000000000000000038FE
:103A70000000000000000000000000000000000046
:103A80000000000000000010000000000008000816
:103A900000100010001000100020002000000000A6
:103AA00000380044004400540044004400440038FE
:103AB0000000000000100030005000100010001046
:103AC0000010001000000000003800440044000412
:103AD000000800100020007C0000000000380044B6
:103AE0000004001800040004004400380000000036
:103AF00000080018002800280048007C0008000882
:103B000000000000007C0040004000780004000439
:103B100000440038000000000038004400400078F5
:103B2000004400440044003800000000007C000411
:103B300000080010001000200020002000000000FD
:103B40000038004400440038004400440044003879
:103B5000000000000038004400440044003C000421
:103B600000440038000000000000000000100000C9
:103B70000000000000000010000000000000000035
:103B800000000010000000000000001000100010F5
:103B900000000000000C003000400030000C00006D
:103BA00000000000000000000000007C0000007C1D
:103BB000000000000000000000000000006000188D
:103BC00000040018006000000000000000380044FD
:103BD00000040008001000100000001000000000A9
:103BE00000380044004C0054005C004000400038A5
:103BF0000000000000100028002800280028007C99
:103C000000440044000000000078004400440078B4
:103C100000440044004400780000000000380044E4
:103C20000040004000400040004400380000000018
:103C30000070004800440044004400440048007004
:103C400000000000007C00400040007C004000407C
:103C50000040007C00000000007C00400040007834
:103C600000400040004000400000000000380044D8
:103C700000400040005C00440044003800000000A8
:103C8000004400440044007C0044004400440044DC
:103C9000000000000038001000100010001000109C
:103CA00000100038000000000004000400040004BC
:103CB00000040004004400380000000000440048F4
:103CC0000050006000500048004800440000000020
:103CD0000040004000400040004000400040007CA8
:103CE000000000000044006C006C005400440044DC
:103CF00000440044000000000044006400640054DC
:103D00000054004C004C0044000000000038004407
:103D10000044004400440044004400380000000017
:103D20000078004400440044007800400040004017
:103D300000000000003800440044004400440044F7
:103D4000005400380004000000780044004400449F
:103D5000007800480048004400000000003800449B
:103D6000004000300008000400440038000000005B
:103D7000007C001000100010001000100010001057
:103D8000000000000044004400440044004400449B
:103D900000440038000000000044004400440028B3
:103DA000002800280010001000000000004400441B
:103DB000005400540054006C00280028000000004B
:103DC00000440028002800100010002800280044AB
:103DD00000000000004400440028002800100010EB
:103DE0000010001000000000007C0004000800101B
:103DF000001000200040007C0000000000180010AF
:103E0000001000100010001000100010001000182A
:103E10000020002000100010001000100008000812
:103E20000000000000300010001000100010001012
:103E3000001000100010003000100028002800447E
:103E40000000000000000000000000000000000072
:103E5000000000000000000000000000000000FE64
:103E60000020001000000000000000000000000022
:103E7000000000000000000000380044003C004446
:103E8000004C003400000000004000400058006476
:103E900000440044006400580000000000000000DE
:103EA000003800440040004000440038000000009A
:103EB000000400040034004C00440044004C003472
:103EC000000000000000000000380044007C0040BA
:103ED0000044003800000000000C0010007C0010BE
:103EE0000010001000100010000000000000000092
:103EF0000034004C00440044004C003400040078BE
:103F00000040004000580064004400440044004465
:103F100000000000001000000070001000100010F1
:103F200000100010000000000010000000700010E1
:103F30000010001000100010001000E000400040D1
:103F4000004800500060005000480044000000009D
:103F50000070001000100010001000100010001081
:103F600000000000000000000078005400540054DD
:103F700000540054000000000000000000580064DD
:103F80000044004400440044000000000000000021
:103F900000380044004400440044003800000000A1
:103FA0000000000000580064004400440064005811
:103FB00000400040000000000034004C0044004479
:103FC000004C0034000400040000000000580064AD
:103FD00000400040004000400000000000000000E1
:103FE00000380044003000080044003800000000A1
:103FF0000020002000780020002000200020001871
:1040000000000000000000000044004400440044A0
:10401000004C003400000000000000000044004498
:104020000028002800280010000000000000000008
:10403000005400540054006C0028002800000000C8
:104040000000000000440028001000100028004478
:104050000000000000000000004400440028002888
:10406000001000100010006000000000007C00083C
:10407000001000200040007C00000000001800102C
:104080000010001000200020001000100010001888
:1040900000100010001000100010001000100010A0
:1040A0000010001000300010001000100008000880
:1040B000001000100010003000000000000000742C
:1040C000004C0000000000000000000080B5AE229F
:1040D0000021782000F0BAFA20220021782000F098
:1040E000B5FA10220021782000F0B0FAB0220021A9
:1040F000782000F0ABFAC8220021782000F0A6FA60
:1041000000220021782000F0A1FA1022002178205E
:1041100000F09CFA40220021782000F097FA8122DA
:104120000021782000F092FAFF220021782000F090
:104130008DFAA1220021782000F088FAA622002121
:10414000782000F083FAA8220021782000F07EFA7F
:104150003F220021782000F079FAA4220021782063
:1041600000F074FAD3220021782000F06FFA0022C8
:104170000021782000F06AFAD5220021782000F092
:1041800065FAF0220021782000F060FAD92200219F
:10419000782000F05BFA22220021782000F056FA05
:1041A000DA220021782000F051FA12220021782032
:1041B00000F04CFADB220021782000F047FA2022A0
:1041C0000021782000F042FA8D220021782000F0B2
:1041D0003DFA14220021782000F038FAAF220021A5
:1041E000782000F033FA2E220021782000F02EFAF9
:1041F000002000F02AF800F007F8AF480021016025
:1042000001214171012002BD38B50024AB4D2200CF
:10421000B032D2B20021782000F018FA002200213A
:10422000782000F013FA10220021782000F00EFA16
:1042300080232006400C2A184021782000F0EEF957
:10424000641CE0B20828E2DB31BD80B5002801D152
:10425000002200E0FF228021C9009848FFF77AFB86
:1042600001BD802800DB704710B5402911DA934C5E
:10427000CB08DB01C018201801234907490F8B40E8
:104280008D490979002905D0002A05D00178994384
:10429000017010BD012AF9D101780B43037010BDE4
:1042A000854A108051807047FEB50F008249098809
:1042B0006B465980694649883B78C918802909DAD4
:1042C0007D4949886B46D9806946C9887B78C91879
:1042D000402901DB0020FEBD0021029169460870E3
:1042E000150002E00298401C0290797802988842FA
:1042F00026D278686A461278203A4A4302995118C1
:104300004900465A00246846C08802994018694608
:10431000888003E06A1E9241D20F0AE03878844216
:10432000E0D26846408800193100A1400904F1D567
:104330002A006946898880B2FFF793FF641CEDE785
:1043400068464088397840185B490880684600789C
:10435000FEBD70B504000E00150000E0641C20785E
:10436000002806D02A003100FFF79EFF21788842FE
:10437000F4D0207870BDFEB50600802E00DB7F26CD
:10438000802A00DB7F22402900DB3F21402B00DB1D
:104390003F23964201D2901B00E0B01A6C46208069
:1043A000994201D2581A00E0C81A6080012444489A
:1043B000964202D26F46FC8001E06D46E880994249
:1043C00002D26846848001E06C46A0800098001408
:1043D000009C24B2A04202DA009800B202E0009CE5
:1043E00024146042C40F201844100898009D2DB278
:1043F000002D16D11C008C4201D20B002100B242CC
:1044000000D932000CB217001E00050005E02A009A
:10441000A1B23800FFF725FF641C21B28E42F6DA04
:10442000F7BD009D2D14002D16D18B4200D90B0035
:104430001100B14201D232000E0034B21F0016004A
:10444000050005E02A003900A0B2FFF70AFF641C4E
:1044500021B28E42F6DAF7BD0D0069464A810B8122
:1044600008A90870009F3F1413E02000009909B2CA
:104470004A4201B28A4203DAE41B6946C9887618C7
:1044800000B2B84205DA009800B224186846808865
:104490002D1808A80278A9B2B0B2FFF7E2FE69466B
:1044A0004989B0B28842E0D169460989A8B28842F8
:1044B000DBD1F7BD00000000E0050020E001002096
:1044C000FFFF0000802800DB7047FEB5402923DA9B
:1044D0008518802D01DB8022121ACC18402C01DBBC
:1044E00040235B1A0024089E05006846C180828034
:1044F0001F000EE06846C088011900968BB268461E
:1045000080882A1892B289B22800FFF734FF641C11
:10451000E4B2B8B2A042EDD2F7BDF0B585B0002448
:104520006D466C82151A012D00DA851A6E463180AF
:104530000E46991B012900DAF11A06B26F463E8237
:104540006E46368836B27E800026F64301278242C8
:1045500003D36A469781578102E068468681468187
:1045600068460088834204D36A4617816846C7803C
:1045700002E068460681C68028B20AB290426846C8
:1045800012DB8481C480858028B2C20F10184410C9
:104590006846C1812800049F3F14049E36B2009DE6
:1045A0002D14694608822BE08460818008B2C20F16
:1045B000101844106846C5810800ECE70CA8007884
:1045C00000906846838D028DA9B2B0B2FFF7D3FE8A
:1045D000039800142418019909B220B2884208DB1C
:1045E000019800B2241A039800B23618029800B25B
:1045F0002D18029800143618019800142D187F1CED
:10460000049800B239B28842D8DA05B0F0BD80B55E
:104610000020FFF71AFEFFF7F7FD01BD78B5C1B026
:1046200001AC2170002103E0555C66187570491CCF
:104630008DB29D42F8D3642100915B1C9BB201AA0C
:104640000100094800F066F842B070BDE0B501AB6A
:1046500019705A7064210091022301AA01000248D6
:1046600000F058F807BD0000A000002070B504005D
:1046700001D1012070BD2500403500266878002852
:1046800003D12E702000FEF759FC242068702068AA
:10469000016801229143016060686C490140206813
:1046A000016121686A488A6802408A60E1680129DC
:1046B000A16801D1C24301E0842212020A432168A9
:1046C0008A60E168022903D18021090122685160D2
:1046D00021684A685F4B13434B602168CA681040E9
:1046E000C860206961690143A0690002084321682C
:1046F000C860E069216A01432068016020680168A0
:1047000001220A4302606E60202068702663AE704A
:10471000002070BDFEB504000F0016001D004030E3
:104720004078202800D08FE04020205C012800D174
:104730008AE0012040216054FEF7B8FF019000900C
:1047400019230122D103200000F09AF8002879D122
:104750002120210040314870102021004031887014
:1047600000202100403148606662658560633A48F8
:10477000089E618DFF290BD9FF21218500908023A0
:104780005B04FF223900200000F02EF9019D11E0AA
:10479000628D2285009080239B04D2B2F2E7FF2035
:1047A00020850020009080235B04FF223900200038
:1047B00000F01AF9608D00282DD02A003100200069
:1047C00000F08AF800283DD1606A0078216888628C
:1047D000606A401C60622148618D09186185218DE5
:1047E00008182085618D0029E4D00004E2D10095ED
:1047F000330000228021200000F042F8002821D15F
:10480000608DFF28CBD8628D228500200090802308
:104810009B04D2B2CAE731002A00200000F085F8DC
:1048200001000DD120202268D061226853680C4D10
:104830001D40556022004032507000209070107072
:10484000080002D00120FEBD0220FEBDFFFFFFF0E8
:10485000FF7FFFFF0080000200200080FFFF0000BC
:1048600000E800FE00688169890701D500218162A6
:10487000012182690A4002D1826911438161704736
:10488000F8B5002405000F00684602701E00286875
:1048900080693840B84201D1012000E0002069461B
:1048A0000978884216D10020C0438642EFD0FEF737
:1048B000FDFE0699401A864201D3002EE7D128005A
:1048C0004030202142680A43426041708470047085
:1048D0000120F2BD0020F2BD70B504000D001600ED
:1048E0002068806980071ED432002900200000F073
:1048F00042F8002801D0012070BD0020C04385424D
:10490000EED0FEF7D3FE801B854201D3002DE7D108
:1049100020004030202142680A434260417000215B
:1049200081700170E7E7002070BDF8B52025040014
:104930000E0017002068806928401AD13A00310023
:10494000200000F018F8002807D1FEF7AFFEC01BCA
:10495000864204D3002EEDD101E00120F2BD2000FB
:1049600040304168294341604570002181700170E9
:10497000F3E70020F2BDF8B5102403689B692340DB
:1049800030D005000F000092202628688169314050
:1049900011D10020C0438742F7D0FEF787FE00996F
:1049A000401A874201D3002FEFD1280040304168E0
:1049B0003143416010E0C4612868C6612800FFF7F8
:1049C00051FF28684168114A0A404260280040307F
:1049D000416804220A4342604670002181700170E0
:1049E0000120F2BD0020F2BDF0B5059C00684568CD
:1049F000660D074F3743BD438905890D29431204CE
:104A00000A4313431C434460F0BD000000E800FE6D
:104A1000FF63FF03F8B50700BB4E307E7076BB4CDA
:104A20003725380003D0022F45D01CD34AE0FFF7CA
:104A3000EEFD00210020FFF733FC0122B44900BF46
:104A4000B5A0FFF786FC1E210020FFF729FC0122FC
:104A5000AF4900BFB3A0FFF77CFCE5811E20208298
:104A6000FFF7D2FB2EE0FFF7D2FD00210020FFF779
:104A700017FC0122A64900BFACA0FFF76AFC142175
:104A80000020FFF70DFC0122A14900BFAAA0FFF7FB
:104A900060FC28210020FFF703FC01229C4900BF95
:104AA000A7A0FFF756FCE581142020823C20F0816E
:104AB0002820308206E0FFF7AAFD31001C310220D9
:104AC00000F08BF83776F1BD80B58F49097E00295B
:104AD00003D002290FD003D309E0012805D00CE050
:104AE00001280DD0022802D10220FFF793FFFFF723
:104AF0008BFB012002BD012802D00228F4D0F6E78A
:104B00000020F2E778B587B0814E804C7E4D287E3C
:104B1000002802D0012812D049E0218AE089FFF75D
:104B2000BFFBA07C002806D0606900F00DF90200F0
:104B30000B0021002CE001223100200034E0218A0A
:104B4000E089FFF7ADFBA07C00280ED0606900F083
:104B5000FBF802000B002100684600F00FF901226B
:104B600031006846FFF7F5FB05E001223100200027
:104B70000A30FFF7EEFB298AE889FFF791FBA87C52
:104B800000280ED0686900F0DFF802000B00290051
:104B9000684600F0F3F8012231006846FFF7D9FBC0
:104BA00005E00122310028000A30FFF7D2FBFFF7B1
:104BB0002BFB08B070BD10B5534C207E02280BD1E2
:104BC000A07E002808D00020A076FFF720FD21005D
:104BD0001C31022000F001F810BDF8B584B00F00C0
:104BE000BD8BFC8B022800D08CE000210020FFF759
:104BF00057FB0122474938001430FFF7AAFB012078
:104C00000090230020339BB22A0021002800FFF7E8
:104C1000B2FBA81E6946888101200290E01E80B286
:104C2000019000952300AA1C92B221006846808959
:104C3000FFF773FC2E005336012000902300203331
:104C40009BB2B2B22100203189B22800FFF793FB5A
:104C5000012002902000203080B2019028005630C0
:104C600080B20090230022339BB2B2B221001E31E9
:104C700089B2B0B2FFF751FC69468D8000256846C5
:104C8000808829000A2251434618B61C210023318E
:104C900089B2B0B2FFF704FB1E4901227819007AED
:104CA000FFF702FB7B5D01200090082220002030EE
:104CB000C11A89B2B0B2FFF705FC6D1C082DDEDB0E
:104CC0006846858826000024E100731801200090C2
:104CD0009BB2AA1C92B2190068468089FFF74BFB71
:104CE000E0003118C91E89B22800093880B2FFF7E8
:104CF000D7FA012207493819007CFFF7D5FA641C5E
:104D0000042CE1DB05B0F0BDFC0000203C010020DC
:104D100008000020000000204D61696E205363727E
:104D200065656E0054656D703A200000416D6269E2
:104D3000656E7420546D7000446567463A2000002B
:104D4000436F756E743A2000012212060118CA42A0
:104D50000AD28A420DD83822120609098918C20FD0
:104D6000D20711434007704700D0490809090143A1
:104D700001E0C10FC90700207047FEE70CB418B569
:104D800083B004000A0006A802900194002000905D
:104D900002AB01A9084878441E30FBF78DF90021C9
:104DA000019A1170002801D40198001B04B00199E8
:104DB00010BC03B0084700BFB3C3FFFFF8B586B00F
:104DC000FEF77AFC00F0E8F814216846FEF7C0FD13
:104DD0000421914802680A4302600268114005916B
:104DE000059901270168394301600168394005913F
:104DF0000599022401682143016000682040059064
:104E0000059800222021A020C005FEF723FD2003E5
:104E10000090002501950295804E69463000FEF70E
:104E200075FC202000900197029503946946A0200C
:104E3000C005FEF76BFCA020009001950297694623
:104E40003000FEF763FC200200900195029769464E
:104E5000A020C005FEF75AFC714C26009036714820
:104E6000306071487060B560F76035617561B5613B
:104E7000F56135623000FFF7F9FB0021300000F0EA
:104E8000F7F80021300000F010F9684860609620C3
:104E90008001A060E560256165610C20A061E5618D
:104EA00025626562A562E562201DFDF7F7FB002122
:104EB000201D00F041F90021201D00F057F9201DB0
:104EC00000F01CF9FFF702F9FFF7A1FB0021052014
:104ED000FFF7E6F9012256495EA0FFF73AFA2321CF
:104EE0001420FFF7DDF90122524900BF5DA0FFF752
:104EF00030FAFFF789F9504800F098F90020FFF7E1
:104F000089FD2EE0677001E06570A57021780120B1
:104F100048402070012803D1FFF7F4FDFFF74BFE56
:104F20004648007800281CD044490D704448406928
:104F3000FE21890500F08EF9060000F01BFAC0B2D0
:104F40001421FCF75DFB002909D13E48C0781421EB
:104F5000FCF756FB491C3B48C1703B490F70384871
:104F600046613A480078002801D038490D70384829
:104F700000780028D4D036490D7000F03DF8E0707C
:104F80000328C1D061780129BCD1A1780029BDD105
:104F9000FFF79AFDA070B9E710B598B034210BA8BF
:104FA000FEF7D6FC684600210022002300241EC024
:104FB0001C21FEF7CDFC8020800000F0F9F90220D2
:104FC0000B90FE300E900F944020109012940BA87E
:104FD000FEF76EF8072000900194029403940021DC
:104FE0006846FEF74DFA422004900694079404A800
:104FF00000F004FA18B010BD38B5084C80218901C2
:105000002000FEF721FC450020212000FEF71CFCBB
:105010002843C0B232BD00003410024000080050E6
:1050200010000020005400405B3D30000044004070
:10503000000000200800002088130000D701002095
:10504000FC0000201801002016010020D5010020DE
:10505000D6010020476F6F64204D6F726E696E67D6
:105060002100000057414B45205550210000000011
:1050700070B5020040325378202B14D14023C35C1A
:10508000012B10D001231370242454700468256868
:105090009D43256004682568164E2E4026600468EE
:1050A000256829431CE0022070BD70B50200403223
:1050B0005378202B12D14023C35C012B0ED0012347
:1050C000137024245470046825689D432560046887
:1050D0002568094E2E400902314301E0022070BDCF
:1050E0002160006801680B4303602020507000209D
:1050F000107070BDFFEFFFFFFFF0FFFF30B57C21A8
:10510000415C012901D1022030BD01007C31012226
:105110000A7024224A600268136814680125AC43AF
:10512000146000224266244C1C4000680460202069
:1051300048600A70002030BD70B504007C20205CFF
:10514000012801D1022070BD26007C36012030707C
:105150002420706020680568026801239A43026079
:1051600020688268D200D208114318E070B50400AC
:105170007C20205C012801D1022070BD26007C36F5
:1051800001203070242070602068056802680123C7
:105190009A43026020688268084B1340194381607B
:1051A000200000F00DF820680560202070600020CD
:1051B000307070BD00000000FFFFFFDFFFFFFFF158
:1051C000F0B585B0040003A814A10CC90CC001A857
:1051D00014A10CC90CC0606E002802D10120012569
:1051E00015E0206881680901490F00918068410F2E
:1051F00001AE03AF785CC000715CFCF701FA0500FA
:105200000098385CC0000099715CFCF7F9F9210046
:1052100068314D80088005B0F0BD00000101010338
:1052200007010000080402040801010138B5050067
:10523000FEF73CFA04000020C043854202D0044837
:1052400080682D18FEF732FA001BA842FAD331BD50
:10525000EC0000200122D20703004B402ED4431A59
:1052600001D2C01AC91830B44B180418240E1B0EF2
:1052700022D0FF2C20D0E31A182B1DDC0902114389
:10528000C40D641E0002104394461925ED1A0A004D
:10529000AA40D940451801D36D08A41CE405D209E1
:1052A000280A2D062A436546AA41604103181B0EB1
:1052B000FF2B01D3C00DC00530BC7047514006E044
:1052C0005140CCE70122D20703004B40F8D4431AE7
:1052D00003D2C01AC9185040514030B44B180902CB
:1052E00011430418240E1B0E40D0FF2C3AD0250089
:1052F0009D410BD31ED8C50D4002401A0BD3ED05BE
:105300000100400AC90591416841D5E7C50D400239
:105310004918401AD0D001214008491C0018FCD57A
:105320008C4204D36D1A000AED054019C4E7E80564
:105330001040C1E7182DBFDCAC1C0D00E140E54179
:105340004D40012D4941C40D00021043451A01D4BE
:105350006D199543641EE405280A2D0695416041A8
:1053600030BC7047FF2BA7D1D843A5E72442A3D177
:105370000020A1E70122D2070118090E7F3910D4BD
:1053800049421F310FD4001805D2C0011043C84054
:1053900000D5D0437047C0011043C84005D44042F7
:1053A0007047002070470042F3D510007047FEE7B9
:1053B00010B50E4C21680E4A0A4002432260610D6E
:1053C000884210D10B480068062148430A49FCF77F
:1053D0002BF9401C00E0401E6169490503D50028F7
:1053E000F9D1032010BD002010BD00000070004066
:1053F000FFF9FFFFF800002040420F00FEB5040057
:1054000000206A4610704E4D2168890355D50190E1
:1054100080204005296B014008D1296B0143296395
:10542000296B0840019001980120019045480068CF
:10543000A90D014343480160FEF738F906004148D1
:105440000068C00505D4FEF731F9801B0328F6D3A8
:1054500023E0296DC020800008403B4F00280ED07B
:10546000A16988420BD0286D3840296D80225202F4
:105470000A432A65296D354A0A402A652865C0070E
:105480000FD5FEF713F90600286D800709D4FEF743
:105490000DF9801B2E498842F6D303206946087017
:1054A00004E0286D0740A06938432865019800286A
:1054B00003D0286B2749014029632078C00705D510
:1054C000A86C0321884361680143A96420788007A0
:1054D00005D5A86C0C218843A1680143A9642078F4
:1054E000400605D5A86C1C490140E0680843A86443
:1054F0008020C001216801400DD0A96C8900890875
:1055000062690A43AA6461690204914203D129686D
:1055100082000A432A60216809050DD5A96C0F4A4B
:105520000A4021691143A9642169814204D1286894
:10553000802149020143296068460078FEBD0000D1
:105540000C10024000700040FFFCFFFFFFFFFEFF59
:1055500089130000FFFFFFEFFFCFFFFFFF3FFFFFBB
:10556000686A6C747A4C00007072696E74665F735E
:105570003A20256E20646973616C6C6F77656400F6
:105580007072696E74663A2062616420256E2061D3
:105590007267756D656E74007072696E74665F73A4
:1055A0003A2062616420257320617267756D656EB3
:1055B00074000000000000007072696E74665F7312
:1055C0003A2062616420256C7320617267756D6595
:1055D0006E740000000000006E616E004E414E00CF
:1055E000696E6600494E46003000F1B40168421809
:1055F00041684808131800988068C9071DD54946B6
:1056000040181AE01778521C0770401C761EF9D11A
:10561000002C12D01678521C89080D40032D01D1A0
:105620001578521C290271184D424119A41C0D789D
:10563000491C0570401C641EF9D19A420FD01178A4
:10564000521C03250E002E4002D11678F61C521C67
:105650000C090F2CDAD114780F34521CD6E70098BD
:105660000C30F2BC7047FEE77047FEE770477047AA
:1056700010B500F02DF81349134882885318012201
:105680001C0401D102700A238380C3885B181C04A8
:1056900001D142701923C38003895B181C0401D116
:1056A000827064230381438959180B0402D1C270AC
:1056B000FA218900418110BD80B50448FDF724F826
:1056C00001BD0000FFFF0000D401002014000020F5
:1056D000024801688268891801607047EC00002068
:1056E00000000000000000000000000000000000BA
:1056F00000000000000000000000000000000000AA
:10570000010000000200000003000000040000008F
:10571000060000000700000008000000090000006B
:1057200070B40123002413E00168001D194202D067
:105730004D466918491E0C60091D121F042AFAD231
:105740000D00960701D50C80AD1C1A4000D02C70BE
:105750000268001D002AE7D170BC704710B50749E8
:1057600079441831064C7C44163404E0081D0A685C
:10577000891888470100A142F8D110BD0800000037
:10578000240000009DFFFFFF0C040000E00100204A
:105790000000000057FEFFFFDB0000002E010000AC
:1057A00000000020000000000000000000000000D9
:1057B00000000000010000000200000003000000E3
:1057C0000400000000F00DF8002801D0FFF7C6FF2C
:1057D00000BF00BF002000BF00BFFFF7EFFA00F0DE
:1057E00002F80120704780B500F002F801BDFEE725
:1057F00007463846FCF79AF8FBE7FEE705480146FE
:1058000003B4684680F3098800BF00BF00BF00BF33
:10581000FFF7D8FFA5EDF5FEFF2902D90020C04310
:1058200070470170012070470078401E8041C043DE
:10583000C00F70470148804701480047455800089D
:10584000FD570008802000050149086070470000EE
:1058500008ED00E0FEE7FEE7FEE7FEE7FEE7FEE715
:10586000FEE7FEE7FEE7FEE7FEE7FEE7FEE7FEE710
:10587000FEE700F013CA070A0000603900080B12A7
:105880000000401900080000000300011204DD229E
:1058900001E1300624F40025352E3266ED122D018B
:1058A0005300001A1101301F010004080609140CEE
:1058B0000F0A6162636465666768343332316D79FB
:1058C0004772617068000F00102AE00225342E3103
:1058D00040F0060766669042725800080452FF01C5
:1058E000E3121214100100006A142158F402175434
:1058F00001002084372958B440010019583C610147
:0A59000000060A0019006400E80325
:04000005080057FD9B
:00000001FF
