:020000040800F2
:10000000F0040020E51F0008D11F0008D51F0008DC
:1000100000000000000000000000000000000000E0
:10002000000000000000000000000000D91F0008D0
:100030000000000000000000DB1F0008DD1F0008BA
:10004000E709000800000000AF1300085F16000871
:10005000F7180008631F00086F1F00081120000830
:1000600000000000252000082720000829200008A3
:100070002B2000082D2000082F2000080000000081
:100080003120000833200008352000083720000800
:10009000392000083B2000083D2000083F200008D0
:1000A00041200008432000084520000847200008A0
:1000B000492000084B20000802480168E020C001E8
:1000C0000840704708100240FEB50400002C01D122
:1000D00001206EE22078C00766D5B6480068382156
:1000E00001400091B44800688007800F0700009825
:1000F000102801D1032F02D00098082808D1AF485A
:100100000068800350D5606800284DD1012050E27E
:10011000606880214902884207D1A8480068802190
:1001200049020143A54801601FE06068A021C9029F
:1001300088420ED1A14800688021C90201439F482E
:1001400001609E4800688021490201439B4801608C
:100150000BE09A4800689A49014098480160974826
:100160000068BC49014095480160606800280DD0D6
:1001700000F090FB050091480068800314D400F063
:1001800089FB401B6528F6D3032012E200F082FBB6
:1001900005008A480068800306D500F07BFB401B01
:1001A0006528F6D3032004E22078800700D480E09D
:1001B000804800683821014000917F48006880072E
:1001C000800F07000098102801D1022F02D000985C
:1001D000002830D179480068400504D5E06800283F
:1001E00001D10120E5E19C4800689C49014060691B
:1001F00000020843984908600098002813D16F480E
:10020000006897490140206908436C490860954897
:1002100001216A4A1268D20A5207520F914000F037
:1002200058FB914908609148006800F0A9FB00283C
:100230003FD00120BDE1E068002826D05F4800687B
:1002400087490140206908435C4908605B480068B1
:100250008021490001435948016000F01BFB050063
:1002600056480068400506D400F014FB401B0328E4
:10027000F6D303209DE17848006878490140606921
:10028000000208437449086013E04C480068B44910
:1002900001404A48016000F0FDFA05004748006847
:1002A000400506D500F0F6FA401B0328F6D30320DC
:1002B0007FE12078000739D53E48006838210140A9
:1002C000182908D1BB48006880072FD5A0690028ED
:1002D0002CD101206DE1A069002813D0B548006839
:1002E00001210143B348016000F0D4FA0500B14890
:1002F000006880071AD400F0CDFA401B0328F6D31B
:10030000032056E1AB48006801218843A9490860F1
:1003100000F0C0FA0500A7480068800706D500F085
:10032000B9FA401B0328F6D3032042E120784007A6
:1003300000D4A7E000261F4800683821014020298A
:100340000AD19D480068800700D49BE0A06800287F
:1003500000D097E001202CE198480068C0000FD43D
:1003600096480068802149050143944801609348FC
:10037000006880214905084001900198012006008D
:100380008F480068C0051DD48D4800688021490051
:1003900001438B48016000F07DFA05008848006841
:1003A000C0050FD400F076FA401B0328F6D30320D3
:1003B000FFE000BF081002400C1002400010024095
:1003C000FFFFFEFFA068012806D17B4800680121DD
:1003D0000143794801601BE0A06805280CD17648EC
:1003E00000680421014374480160734800680121DA
:1003F0000143714801600BE06F48006801218843A8
:100400006D4908606C480068042188436A490860A7
:10041000A06800280ED000F03DFA0500664800688C
:10042000800725D400F036FA401B66498842F5D390
:100430000320BEE000F02EFA05005F480068800748
:1004400016D500F027FA401B5E498842F5D30320F9
:10045000AFE000BFFFFFFBFF04100240FF80FFFF83
:10046000FFC7FFFF0024F40004000020000000206C
:100470003000C0B2012805D15048006852490140FF
:100480004E480160E069002800D191E04F480068C3
:1004900038210140102965D0E069022840D1AC48DC
:1004A0000068AC490140AA48016000F0F3F9060079
:1004B000A7480068800106D500F0ECF9801B0328EE
:1004C000F6D3032075E0A5480068A3490140206ADF
:1004D0000843616A0143A06A00020843E16A0143DC
:1004E000206B08439D4908609948006880214904B1
:1004F00001439748016099480068802149050143FC
:100500009648016000F0C6F9050091480068800136
:100510004ED400F0BFF9401B0328F6D3032048E077
:100520008B4800688B490140894801608B4800680E
:100530000321884389490860884800688849014048
:100540008648016000F0A6F9050081480068800136
:100550002ED500F09FF9401B0328F6D3032028E096
:10056000FFFEFFFFE069012801D1012021E07B4867
:1005700000680700B807800F216A884216D17020F2
:100580003840616A884211D1FE20C0013840A16A1A
:10059000090288420AD1F82080033840E16A884283
:1005A00004D1780F4007216B884201D0012000E080
:1005B0000020FEBD601002405C1002403C10024072
:1005C0000070004089130000FFFFFFEF0810024099
:1005D00070B505000C00002D01D10120B7E0964850
:1005E00000684007400FA04217D2934800680721D7
:1005F000884320439049086000F04CF906008E487B
:1006000000684007400FA04207D000F043F9801B6C
:1006100092498842F3D3032099E02878800711D5C6
:100620002878400706D58E480068E021C9010143BB
:100630008B4801608A4800688A490140A8680843DD
:10064000874908602878C00744D56868012805D123
:100650003F480068800322D4012078E068680228BF
:1006600005D13B480068800119D401206FE068681B
:10067000002805D136480068400510D4012066E006
:100680006868032805D178480068800707D40120EE
:100690005DE076480068800701D4012057E070488B
:1006A000006807218843696801436D48016000F0D4
:1006B000F1F806006A480068382101406868C00007
:1006C000814207D000F0E6F8801B64498842F1D3EC
:1006D00003203CE0584800684007400F844217D28E
:1006E000554800680721884320435349086000F0BB
:1006F000D1F80600504800684007400FA04207D0DC
:1007000000F0C8F8801B55498842F3D303201EE04F
:100710002878400707D55248006855490140E868E5
:1007200008434F49086000F01DF852494C4A1268CE
:10073000120A1207120F04235A43895CC906C90E14
:10074000C8404D4908604D48006800F019F970BD77
:1007500000100240FFFFFFFE8C80C11F0C10024002
:10076000FFFFFEEFF8B53E48006838210140002940
:100770000CD1012042490968C90A4907490F88403C
:1007800007004048390000F0A4F850E03448006801
:1007900038210140082901D13B4848E03048006831
:1007A0003821014010292FD1384800688007800F78
:1007B00000903648006800094007400F401C0600C2
:1007C000009803280BD13048310000F082F82F49FF
:1007D0000968090A4906490E484304000AE0294805
:1007E000310000F076F829490968090A4906490EDE
:1007F0004843040025480068400F401C05002000C5
:10080000290000F066F812E0154800683821014020
:10081000202902D18020000209E011480068382117
:100820000140182902D1FA20C00100E00020F2BDE9
:1008300011480068704700000020024010B5FFF723
:10084000F7FF0400FFF738FC1149000B0422504366
:10085000085CC006C00EC440200010BD8913000013
:1008600008100240FFF0FFFF601002405C100240E1
:10087000FF8FFFFF201E0008040000200000002062
:10088000001002400024F40000127A000C10024014
:10089000181F000801480068704700BFE8000020EA
:1008A000F446002804D4494200F013F8404260475F
:1008B0004042002905D45FD000F00BF84042494285
:1008C0006047494200F005F84942604703460B4340
:1008D000E6D40022030A8B420BD203098B4219D2C1
:1008E00043088B422ED2411A00D201465241104693
:1008F0007047FF2209023FD012068B4205D3121225
:1009000009028B4201D31212090203098B4219D347
:1009100000E0090AC3098B4201D3CB01C01A52413E
:1009200083098B4201D38B01C01A524143098B4288
:1009300001D34B01C01A524103098B4201D30B0171
:10094000C01A5241C3088B4201D3CB00C01A524196
:1009500083088B4201D38B00C01A524143088B425B
:1009600001D34B00C01A5241884200D3401A524171
:10097000CFD201461046704708B500F033F808BDE5
:1009800038B5050000241448007800281FD0FA204C
:10099000800011490978FFF79CFF01000F480068AB
:1009A000FFF797FF00F08AF800280DD1042D08D238
:1009B000002229000020C04300F076F808480560B6
:1009C00007E00120040004E00120040001E0012010
:1009D00004002000C0B232BD080000200400002046
:1009E000000000207047FEE7F0B5020052B2002A76
:1009F0001DD4354A03005BB29B0804246343D258DC
:100A0000FF238407A40F08256C43A3409A438B015E
:100A1000DBB28407A40F08256C43A34013432A4A82
:100A2000040064B2A40804256C43135122E0274A51
:100A300003005BB21B071B0F083B9D0804235D43AB
:100A4000224B040064B22407240F083CA4080426A7
:100A500074431B59FF248607B60F08277E43B44012
:100A6000A3438C01E4B28607B60F08277E43B44047
:100A70001C435451F0BD10B50400601E8021490490
:100A8000884201D301200EE0601E11490860032155
:100A90000020C043FFF7A8FF00200E490860072090
:100AA0000D490860002010BD70B505000C0016004F
:100AB0002100280040B2FFF797FF70BD10B5040079
:100AC0002000FFF7D8FF10BD00E400E01CED00E0BF
:100AD00014E000E018E000E010E000E010B50400D1
:100AE000002C01D1012037E0A0690028FFD184202B
:100AF0002058002805D1002080216054200000F0FB
:100B0000C1FA2420842160502068006801218843B4
:100B100021680860200000F023F8012801D101209D
:100B20001AE0A06A002802D0200000F029F920680D
:100B300040680A49014020684160206880682A2195
:100B4000884321688860206800680121014320688B
:100B50000160200000F088F910BD0000FFB7FFFF22
:100B6000FEB505000026A8682969014368690843A5
:100B7000E9690143686E0843296809687C4A0A40AC
:100B8000024329680A60296849687A4A0A40E96884
:100B900011432A685160A9692A6A0A4302922968A6
:100BA0008968754A0A40029911432A689160296848
:100BB000C96A0F2291436A6A0A432968CA6229688E
:100BC0006E4A914215D1A64800688007800F002820
:100BD00005D0022805D006D3032806D007E000245C
:100BE0002FE002242DE004242BE0082429E0102427
:100BF00027E028689B49884216D1994800680C2153
:100C00000140002906D0042908D0082904D00C2965
:100C100006D007E0002414E0022412E0042410E0CF
:100C200008240EE010240CE02868AB49884201D16A
:100C3000002406E02868A949884201D1002400E088
:100C40001024E86980210902884248D12000C0B2FE
:100C5000002806D0022808D0042808D008280AD086
:100C60000CE0FFF7EBFD07000BE09D4F09E0FFF7FD
:100C700079FD070005E080273F0202E00027012000
:100C80000600002F66D03800C4496A6A02235A431E
:100C9000895AFFF71EFE0221484369684908401837
:100CA0006968FFF716FE80B200900098102813D3F1
:100CB00000988021490288420ED20099B848084025
:100CC0006946009A52085207520F02438A806846CA
:100CD00080882968C8603DE0012006003AE02000D5
:100CE000C0B2002806D0022808D0042808D008285E
:100CF0000AD00CE0FFF7A2FD07000BE0784F09E0F7
:100D0000FFF730FD070005E080273F0202E00027E3
:100D100001200600002F1DD03800A0496A6A022376
:100D20005A43895AFFF7D5FD696849084018696830
:100D3000FFF7CFFD80B200900098102808D30098EC
:100D400080214902884203D200982968C86001E0E6
:100D50000120060001206A216852012068216852A2
:100D600000202867002068673000C0B2FEBD000088
:100D7000F369FFCFFFCFFFFFFFF4FF110038014001
:100D800000B52821415CC90707D501684968854A33
:100D90000A40C16A1143026851602821415C8907F9
:100DA00007D501684968804A0A40016B114302680F
:100DB00051602821415C490707D5016849687B4A91
:100DC0000A40416B1143026851602821415C0907C8
:100DD00007D501684968764A0A40816B1143026869
:100DE00051602821415CC90607D501688968714AAC
:100DF0000A40C16B1143026891602821415C890659
:100E000007D5016889686C4A0A40016C1143026881
:100E100091602821415C490614D501684968674AF8
:100E20000A40416C114302685160416C80225203B8
:100E3000914207D101684968614A0A40816C1143B7
:100E4000026851602821415C090607D5016849689C
:100E50005C4A0A40C16C11430268516000BD000049
:100E6000541002400044004038B5040000208C219A
:100E70006050FFF70FFD05002068006800070CD5E3
:100E8000514800902B00002280218903200000F0AF
:100E900029F8002801D003201CE0206800684007E2
:100EA0000CD5494800902B0000228021C903200066
:100EB00000F018F8002801D003200BE02020842146
:100EC00060502020882160500020E06600208021B2
:100ED0006054002032BD000000480040004C00403B
:100EE0000024F400F4B504000D001F00069E2068E5
:100EF000C0692840A84201D1012000E000206946D5
:100F00000978884247D10020C0438642EFD0FFF7DE
:100F1000C1FCC01B864201D3002E16D12068006898
:100F20002A490140206801602068806801218843C7
:100F30002168886020208421605020208821605012
:100F4000002080216054032026E0206800684007CC
:100F5000CDD52068C0690005C9D580200001216871
:100F60000862206800681949014020680160206813
:100F70008068012188432168886020208421605096
:100F800020208821605020208C216050002080216A
:100F90006054032000E00020F2BD0000A01F000804
:100FA000F0FF0000FFFFFDFFFFFFFEFFFFFFFBFF65
:100FB000FF7FFFFFFFEFFFFFFFDFFFFFFFFFEFFF01
:100FC000FFFF9FFFFFFFF7FFFFFFFF015FFEFFFF38
:100FD00080B5484800680121014346480160454802
:100FE00000680100C907C90F0091009842480068D5
:100FF000802149050143404801603F480068802145
:101000004905084000900098C020C00000F092F808
:1010100001BD10B586B004001422002101A800F023
:1010200097F82068354988422AD1324800688021E3
:10103000090101432F4801602E4800688021090101
:101040000840009000982E480068012101432C4878
:1010500001602B4800680100C907C90F0091009882
:10106000C020800001900220029000200390002008
:1010700004900220059001A9A020C00500F072F89C
:1010800006B010BD10B586B004001422002101A8DE
:1010900000F05EF820681B49884229D11648006894
:1010A00080218902014314480160134800688021AF
:1010B000890208400090009811480068012101430E
:1010C0000F4801600E4800680100C907C90F009170
:1010D00000980C2001900220029001200390002033
:1010E00004900120059001A9A020C00500F03AF865
:1010F00006B010BD401002403C100240002C0140E0
:10110000341002400044004010B500240D4800682F
:101110008021490001430B4801600020FFF730FCAB
:10112000002802D00120040001E0FFF751FF200059
:10113000C0B210BD04490968044A0A40024302498A
:101140000A6070470020024000000140FFF9FFFFE5
:1011500010B50400080011000200200000F000F9A2
:10116000200010BDF0B500230C68DC40002C00D13D
:10117000D8E00C6801269E4026403200002A00D1AB
:10118000CEE04C68012C08D04C68022C05D04C688D
:10119000112C02D04C68122C1FD187680324A4465E
:1011A0001E00022466436446B440A743CC68A446AC
:1011B0001E00022466436446B4403C438460476892
:1011C00001269E40B743BC464F683E00F606F60F28
:1011D0009E4067463E4335004560C7680324A446E9
:1011E0001E00022466436446B440A7438C68A446AC
:1011F0001E00022466436446B4403C43C4604E680B
:10120000022E02D04D68122D1ED1DD080426754332
:1012100045192E6A0F27BC461D006D076D0F042768
:101220007D436746AF40BE430D69AC461D006F0766
:101230007F0F04256F436546BD4035432C00DD0814
:101240000426754345192C6207680325AC461E0029
:1012500002256E436546B540AF430D79AD07AD0F2E
:10126000AC461E0002256E436546B5403D43056011
:101270004E68F60054D5324C9E0804277E43A6598A
:101280000F27BC461C00A407A40F08277C43674611
:10129000A740BE43A024E405A04201D100240FE0F2
:1012A000284CA04201D101240AE0274CA04201D1E0
:1012B000022405E0254CA04201D1032400E00524CE
:1012C0001D00AD07AD0F08277D43AC4034431C4DD6
:1012D0009E0804277E43AC511D4D2D6895434E68F2
:1012E000F60300D515431A4C25601A4C2468944324
:1012F0004E68B60300D51443164D2C60164D2E686B
:1013000096434D68ED0200D51643134C2660134CEE
:10131000256895434C68A40200D515430F4C256001
:101320005B1C21E7F0BD00B51300DBB2002B03D03E
:101330000B009BB2836102E00B009BB2836200BD95
:10134000601802400004005000080050000C0050DB
:10135000801802408418024000180240041802401D
:101360001206130A1A43130C1A4300BF094205D090
:10137000830705D00270401C491EF9D17047000058
:101380001300103906D330B41400150010393CC0D6
:10139000FCD230BC490700D30CC000D504C0890082
:1013A00002D30280801C002900D502707047FEE73E
:1013B00080B5FFF7A9FE00F00FF800F0FCF800F090
:1013C0005BF800F0B5F83C219B4800F0AFF99B4872
:1013D00000689B490880FAE780B598B03422002164
:1013E00004A8FFF7B5FE102200216846FFF7B0FE03
:1013F0001C22002111A8FFF7ABFE8020800000F026
:101400007BFA022004908020400007900020089082
:101410004020099002200B9002200C9000200D909B
:1014200008200E90802080020F9080208005109070
:1014300004A8FEF749FE002801D000F00DF90720AE
:1014400000900220019000200290002003900221D1
:101450006846FFF7BDF8002801D000F0FDF8022033
:1014600011900020139011A800F072FA002801D00A
:1014700000F0F2F819B000BD00B599B024220021A7
:1014800003A8FFF765FE0C2200216846FFF760FE07
:10149000342200210CA8FFF75BFE6A486649086009
:1014A00004206549486000206349886066486249B5
:1014B000C86000206049086100205F4948618020C1
:1014C0005D4988610320039000200490012005906D
:1014D000002006900A200790002008900120099023
:1014E00000200A9000200B9003A9534800F0B8F8A0
:1014F000002801D000F0B0F80020009000200190FA
:101500000020029069464C4800F010FB002801D0F2
:1015100000F0A2F800201390002017900CA9464874
:1015200000F040FB002801D000F096F819B000BD93
:1015300080B5464846490860E12040024449486079
:10154000802040054249886000204149C860002051
:101550003F4908610C203E49486100203C498861B0
:1015600000203B49C8610020394908620020384901
:1015700048620020364988623548FFF7AFFA0028F4
:1015800001D000F069F80021314800F0A3FB0028E9
:1015900001D000F061F800212D4800F0C6FB0028C2
:1015A00001D000F059F82A4800F070FB002801D063
:1015B00000F052F801BD80B586B01422002101A8C8
:1015C000FFF7C6FD2348006804210143214801605C
:1015D0002048006804210840009000981D480068D9
:1015E000202101431B4801601A480068202108405F
:1015F00000900098174800680121014315480160D8
:10160000144800680100C907C90F00910098002222
:101610002021A020C005FFF786FE20200190012098
:101620000290002003900220049001A9A020C00590
:10163000FFF798FD07B000BD9C000020242C01405E
:10164000EC000020002C0140FFFF0000004400409F
:101650000C0000203410024000B572B6FEE7FEE731
:1016600070B504000D00002C01D101205AE03D208E
:10167000205C002805D100203C2160542000FFF7A9
:10168000C8FC02203D216054206880682649014042
:1016900020688160211D206800F0CEF820688368F2
:1016A000206882692068006A296819435F4B1340EB
:1016B000AE681E43AA69120232435D4B13405D4A75
:1016C0001A40EB681343EA6912021A432B691B01A3
:1016D00013432A6A12031A43222398438823984308
:1016E0006E6806436869030133432068816020689F
:1016F00082612068036201204826A05501203E2611
:10170000A055C0B201203F26A055C0B201204426FA
:10171000A055C0B201204526A055C0B201203D26EB
:10172000A055002070BD0000F8BFFEFFF8B5040012
:101730000D0068463E21615C417068463F21615C56
:1017400001704420275C4520265C002D12D168469C
:101750004078012803D13800C0B2012801D001200F
:1017600062E002203E216054C0B202204421605455
:10177000C0B236E0042D12D168460078012803D1AA
:101780003000C0B2012801D001204DE002203F21ED
:101790006054C0B2022045216054C0B221E06846C6
:1017A000407801280BD168460078012807D138001D
:1017B000C0B2012803D13000C0B2012801D00120FD
:1017C00032E002203E216054C0B202203F2160542A
:1017D000C0B2022044216054C0B2022045216054AE
:1017E000C0B22800002802D0042806D00BE0012255
:1017F0000021206800F06CF80FE00122042120682D
:1018000000F066F809E001220021206800F060F88D
:1018100001220421206800F05BF8206800680121A3
:101820000143206801600020F2BD0000FCFCFFFFC6
:10183000F3F3FFFF0F0FFFFF00B502681D4B984247
:1018400002D01D4B984204D170239A4313004A687A
:101850001A43184B98420ED0174B98420BD0174B97
:10186000984208D0164B984205D0164B984202D0A9
:10187000164B984203D1144B1340CA681A43802375
:101880009A434B69134303608A68C2620A688262A2
:10189000084A904208D00A4A904205D0094A90422C
:1018A00002D00A4A904201D10A69026301224261D0
:1018B00000BD0000002C014000040040002000405A
:1018C0000040014000440140FFFCFFFF0048014090
:1018D00070B401230C00E406E40EA340046A9C43A8
:1018E0000462046A0D00ED06ED0E1600AE402643BC
:1018F000066270BC7047FEE730B504000F48006810
:101900000F49014021430D4801608020800084423E
:1019100012D10C480068062148430B49FEF7D9FF55
:10192000401C050009480068400505D5002D01D080
:101930006D1EF7E7032000E0002030BD007000407E
:10194000FFF9FFFF0400002040420F001470004028
:10195000FEB5040000250026206880037DD5002701
:1019600067480068C0000FD46548006880214905B9
:1019700001436348016062480068802149050840CE
:1019800002900298012007005E480068802149000B
:1019900001435C480160FEF77DFF019059480068F3
:1019A000C00507D4FEF776FF0199401A0328F5D346
:1019B000032005002800C0B2002843D15248006827
:1019C000C0218900014000910098002818D000989B
:1019D000A169884214D04C4800684C4901400091EC
:1019E0004948006880214902014347480160464850
:1019F0000068474901404448016000984249086036
:101A00000098C0070FD5FEF745FF01903E480068DB
:101A1000800708D4FEF73EFF0199401A3D498842ED
:101A2000F4D3032005002800C0B2002808D13648AE
:101A3000006836490140A06908433349086002E064
:101A40002E0000E02E003800C0B2012805D12C483D
:101A50000068314901402A4801602078C00707D555
:101A60002E48006803218843616801432B480160C8
:101A70002078800707D5294800680C218843A16891
:101A80000143264801602078800607D52348006876
:101A900023490140E0680843204908602068400469
:101AA00013D51E48006880008008616901431B4807
:101AB000016060698021C905884206D11948006823
:101AC000802149020143174801602068000513D5B1
:101AD0001248006814490140206908430F49086012
:101AE00020698021C901884206D10E480068802102
:101AF000490201430B4801603000C0B2FEBD000046
:101B00003C100240007000405C100240FFFCFFFFF0
:101B1000FFFFFEFF89130000FFFFFFEF541002409C
:101B2000FFCFFFFF0C100240FF3FFFFF30B5020068
:101B30003C20105C012801D1022031E001203C232F
:101B4000D05402203D23D0541068406813689B682D
:101B50001468404DAC4203D13F4C044048682043D8
:101B60007024A0430C680443106844601068394D29
:101B7000A84207D01068394DA84203D01068384DEC
:101B8000A84206D18020834318008B680343106865
:101B9000836001203D25505500203C2550550020F4
:101BA00030BD000010B5020000233C20105C01286D
:101BB00001D102204AE001203C241055FF2083433C
:101BC000C8681843274B034088681843264B0340D6
:101BD00048681843254B034008681843244B0340CA
:101BE000086918431A4B034048691843214B0340C6
:101BF000086B1843204C0440886903042343106891
:101C0000144CA04203D11D481840CB69034310680F
:101C1000104CA04214D1104C1C40886A000520438F
:101C2000174B0340086A1843164C04404B6A234381
:101C30001068084CA04203D113481840CB6A0343F4
:101C40001068436400203C241055002010BD0000A3
:101C5000FFDFFFFF002C0140FFFF0FFF00040040EB
:101C600000400140FFFCFFFFFFFBFFFFFFF7FFFF0E
:101C7000FFEFFFFFFFBFFFFFFFFFF0FFFFFFFFEFE3
:101C8000FFFFFFFEFFFFFFFDFFFFFFDF00B50100CD
:101C90008020085C012801D102201AE00120802266
:101CA0008854242084228850086800680A681268D2
:101CB00001239A430B681A60314A024000204866AB
:101CC0000868026020208423C85000208023C85464
:101CD000002000BD70B505000C008020285C0128A4
:101CE00001D1022020E00120802168542420842199
:101CF00068502868066828680068012188432968B8
:101D0000086028688068C000C0082043296888608F
:101D1000280000F039F828680660202084216850E7
:101D2000002080216854002070BD70B505000C00B3
:101D30008020285C012801D1022020E001208021A0
:101D40006854242084216850286806682868006840
:101D50000121884329680860286880680949014092
:101D6000214328688160280000F00EF8286806608A
:101D7000202084216850002080216854002070BDFC
:101D8000FFFFFFDFFFFFFFF1F0B585B0040003A800
:101D900021490CC90CC00839083801A81F490CC9D1
:101DA0000CC008390838606E002806D101206A216D
:101DB00060520120682160522CE0082069460870BA
:101DC0000820050020688068400E4007400F06008C
:101DD00020688068400F07002800C0B203A93A00BD
:101DE000D2B2895C484301A93A00D2B2895CFEF7BD
:101DF0006DFD6A2160526846007803A93200D2B2B4
:101E0000895C484301A93200D2B2895CFEF75EFDCD
:101E10006821605205B0F0BD142000081C200008A5
:101E200000000000000000000000000000000000B2
:101E300000000000000000000000000000000000A2
:101E40000100000002000000030000000400000088
:101E50000600000007000000080000000900000064
:101E600070B40123002413E00168001D194202D060
:101E70004D466918491E0C60091D121F042AFAD22A
:101E80000D00960701D50C80AD1C1A4000D02C70B7
:101E90000268001D002AE7D170BC704730B40122EF
:101EA0000EE00368C31844680830144202D04D465F
:101EB0002C19641E1D6825601B1D241D091FF9D1E6
:101EC0000168001D0029ECD130BC704710B50749EE
:101ED00079441831064C7C44163404E0081D0A6825
:101EE000891888470100A142F8D110BD0800000000
:101EF000280000006DFFFFFFE40000000C00002040
:101F00000000000099FFFFFF0C000000F800000037
:101F100000000020000000000000000000000000A1
:101F200000000000000000000100000002000000AE
:101F3000030000000400000000F00DF8002801D0AC
:101F4000FFF7C4FF00BF00BF002000BF00BFFFF7C6
:101F50002FFA00F002F80120704780B500F002F877
:101F600001BDFEE70746384600F002F8FBE7FEE752
:101F700080B500BF00BF024A11001820ABBEFBE7CE
:101F8000260002000548014603B4684680F309882C
:101F900000BF00BF00BF00BFFFF7CEFFA5EDF5FEFD
:101FA000010002000400060008000A000C001000F6
:101FB00020004000800000010348006803490978C0
:101FC0004018014908607047E80000200800002020
:101FD00000B5FEE700B5FEE77047704780B5FFF734
:101FE000EBFF01BD0148804701480047F51F00088D
:101FF000851F000880200005014908607047000027
:1020000008ED00E0040000000024F40001000000DE
:10201000FEE70000010101030701000008040204BB
:1020200008010101FEE7FEE7FEE7FEE7FEE7FEE747
:10203000FEE7FEE7FEE7FEE7FEE7FEE7FEE7FEE778
:0C204000FEE7FEE7FEE7FEE7FEE7FEE736
:0400000508001F854B
:00000001FF
